D20260202220FS84VZ-505045       100907000218000210000013000029000008000000020260114FS84VVZ1TB      2 021L3121250170731FS84VZ     505045               
D20260202220FV84HZ-500056       100907000218000210000013000029000008000000020260122FV84HUZ2TC      1 632L3121250112542FV84HZ     500056               
D20260202220FY84GY-505019       100907000218000210000013000029000008000000020260123FY84GTY2B       2 021L3121250273821FY84GY     505019               
D20260202220FY84GY-505025       100907000218000210000013000029000008000000020260123FY84GTY2B       2 021L3121250289514FY84GY     505025               
D20260202260FDA60-620010        100442000218000210000013000029000008000000020260131FDA60B21S00G    5 022S3121250300206FDA60      620010               
D20260202260FEB50-612100        100442000218000210000013000029000008000000020260115FEB50E22S00G    4 021S3121250238398FEB50      612100               
D20260202260FEB50-612232        100442000218000210000013000029000008000000020260106FEB50E21S00G    4 012S3121250268997FEB50      612232               
D20260202260FEB50-612233        100442000218000210000013000029000008000000020260106FEB50E21S00G    4 012S3121250269004FEB50      612233               
D20260202260FGA50-610076        100442000218000210000013000029000008000000020260126FGA50B31SKUG    4 513S3121250006117FGA50      610076               
D20260202330BE740G-450270       101684000284000462000013000029000008000000020260115BE740GBAH       6 012B1121250287130BE740G     450270               
D20260202330BG740G-450052       101684000284000462000013000029000008000000020260130BG740GBAH       6 012B1121250285554BG740G     450052               
