D20260105220FP84HE-505035       100907000218000210000013000029000008000000020251203FP84HER3XKTB    2 027S3121250308343FP84HE     505035               
D20260105220FP84VG-505018       100907000218000210000013000029000008000000020251203FP84VGR3XWTC    2 027L3121250282757FP84VG     505018               
D20260105220FS84HZ-501060       100907000218000210000013000029000008000000020251211FS84HWZ2TC      1 632L3121250193833FS84HZ     501060               
D20260105220FS84HZ-501068       100907000218000210000013000029000008000000020251211FS84HWZ2TC      1 632L3121250199932FS84HZ     501068               
D20260105220FS84HZ-505443       100907000218000210000013000029000008000000020251210FS84HVZ2B       2 021L3121250285987FS84HZ     505443               
D20260105220FS85HZ-505112       100907000218000210000013000029000008000000020251201FS85HVZ2B       2 632L3121250277911FS85HZ     505112               
D20260105220FS85VZ-505098       100907000218000210000013000029000008000000020251224FS85VVZ1TB      2 021L3121250312984FS85VZ     505098               
D20260105220FU84HZ-505013       100907000218000210000013000029000008000000020251225FU84HUZ2B       2 512L3121250153998FU84HZ     505013               
D20260105220FU84HZ-505047       100907000218000210000013000029000008000000020251203FU84HTZ2B       2 012L3121250202847FU84HZ     505047               
D20260105220FU85HZ-505009       100907000218000210000013000029000008000000020251201FU85HUZ3TB      2 021L3121250207653FU85HZ     505009               
D20260105220FU85HZ-505012       100907000218000210000013000029000008000000020251204FU85HUZ3TB      2 632L3121250213984FU85HZ     505012               
D20260105220FU85HZ-505013       100907000218000210000013000029000008000000020251210FU85HUZ3TB      2 632L3121250214280FU85HZ     505013               
D20260105220FU85HZ-505017       100907000218000210000013000029000008000000020251210FU85HUZ2B       2 632L3121250262410FU85HZ     505017               
D20260105220FU85HZ-505021       100907000218000210000013000029000008000000020251210FU85HUZ3TB      2 632L3121250309708FU85HZ     505021               
D20260105220FU85HZ-505027       100907000218000210000013000029000008000000020251216FU85HUZ3TB      2 632L3121250336324FU85HZ     505027               
D20260105220FU85HZ-505028       100907000218000210000013000029000008000000020251223FU85HUZ3TB      2 632L3121250337200FU85HZ     505028               
D20260105220FV80GX-505004       100907000218000210000013000029000008000000020251211FV80GJXM2B      2 555L3121250150003FV80GX     505004               
D20260105240FK62F-621169        100650000218000210000013000029000008000000020251208FK62FJ6         9 012M3121250154122FK62F      621169               
D20260105240FK62F-621175        100650000218000210000013000029000008000000020251205FK62FL5         9 012M3121250154630FK62F      621175               
D20260105240FK65F-621646        100650000218000210000013000029000008000000020251226FK65FK5E        9 012M3121250236464FK65F      621646               
D20260105240FK72F-621985        100650000218000210000013000029000008000000020251203FK72FJ4NE       9 021M3121250302680FK72F      621985               
D20260105240FK72F-622039        100650000218000210000013000029000008000000020251203FK72FJ4N        9 021M3121250316540FK72F      622039               
D20260105260FBAV0-620178        100442000218000210000013000029000008000000020251225FBAV0B31S00G    5 012S3121250334663FBAV0      620178               
D20260105260FBAV0-620194        100442000218000210000013000029000008000000020251208FBAV0B31S00G    5 012S3121250336803FBAV0      620194               
D20260105260FBAV0-620232        100442000218000210000013000029000008000000020251223FBAV0B31S00G    5 012S3121250345944FBAV0      620232               
D20260105260FBAV0-620235        100442000218000210000013000029000008000000020251222FBAV0B31S00G    5 012S3121250347168FBAV0      620235               
D20260105260FBAV0-620251        100442000218000210000013000029000008000000020251216FBAV0B22S00G    5 012S3121250350214FBAV0      620251               
D20260105260FBA20-612764        100442000218000210000013000029000008000000020251201FBA20B22S00F    4 012S3121250167353FBA20      612764               
D20260105260FBA20-620077        100442000218000210000013000029000008000000020251202FBA20B21S0MF    5 021S3121250305777FBA20      620077               
D20260105260FBA20-620210        100442000284000210000013000029000008000000020251203FBA20B21S00F    5 012S3121250307018FBA20      620210               
D20260105260FBA20-620361        100442000218000210000013000029000008000000020251212FBA20B21S00F    5 012S3121250322493FBA20      620361               
D20260105260FBA20-620399        100442000218000210000013000029000008000000020251202FBA20B21S00F    5 012S3121250324196FBA20      620399               
D20260105260FBA20-620444        100442000218000210000013000029000008000000020251202FBA20B21S00F    5 012S3121250329191FBA20      620444               
D20260105260FBA20-620585        100442000218000210000013000029000008000000020251216FBA20B21S00F    5 632S3121250347230FBA20      620585               
D20260105260FBA20-620586        100442000218000210000013000029000008000000020251212FBA20B21W00F    5 012S3121250347852FBA20      620586               
D20260105260FBA20-620608        100442000218000210000013000029000008000000020251215FBA20B21W00F    5 012S3121250350285FBA20      620608               
D20260105260FBA20-620610        100442000218000210000013000029000008000000020251215FBA20B21W00F    5 012S3121250350298FBA20      620610               
D20260105260FBA20-620611        100442000218000210000013000029000008000000020251215FBA20B21W00F    5 012S3121250350302FBA20      620611               
D20260105260FBA30-620039        100442000218000210000013000029000008000000020251208FBA30B21S00G    5 022S3121250330153FBA30      620039               
D20260105260FBA60-620295        100442000218000210000013000029000008000000020251201FBA60B32S00G    5 022S3121250330179FBA60      620295               
D20260105260FBA60-620298        100442000218000210000013000029000008000000020251204FBA60B32S00G    5 022S3121250331677FBA60      620298               
D20260105260FDA50-620021        100442000218000210000013000029000008000000020251209FDA50B21S00G    5 012S3121250336438FDA50      620021               
D20260105260FEAVK-612522        100442000218000210000013000029000008000000020251205FEAVKB2CS00F    4 021S3121250251201FEAVK      612522               
D20260105260FEAVK-612523        100442000218000210000013000029000008000000020251205FEAVKB2CS00F    4 021S3121250251214FEAVK      612523               
D20260105260FEAVK-612645        100442000218000210000013000029000008000000020251205FEAVKB2CS00F    4 021S3121250268795FEAVK      612645               
D20260105260FEAVK-612665        100442000218000210000013000029000008000000020251205FEAVKB2CS00F    4 021S3121250269479FEAVK      612665               
D20260105260FEAVK-612713        100442000218000210000013000029000008000000020251215FEAVKB2CS00F    4 021S3121250276051FEAVK      612713               
D20260105260FEAVK-612724        100442000218000210000013000029000008000000020251212FEAVKB2CS00F    4 021S3121250277591FEAVK      612724               
D20260105260FEAVK-612728        100442000218000210000013000029000008000000020251205FEAVKB2CS00F    4 021S3121250278581FEAVK      612728               
D20260105260FEAVK-612754        100442000218000210000013000029000008000000020251215FEAVKB2CS00F    4 021S3121250282379FEAVK      612754               
D20260105260FEAVK-612881        100442000218000210000013000029000008000000020251225FEAVKB2CS00F    4 632S3121250302013FEAVK      612881               
D20260105260FEAVK-612887        100442000218000210000013000029000008000000020251225FEAVKB2CS00F    4 632S3121250303537FEAVK      612887               
D20260105260FEAVK-612889        100442000218000210000013000029000008000000020251215FEAVKB2CS00F    4 021S3121250305562FEAVK      612889               
D20260105260FEAVK-612897        100442000218000210000013000029000008000000020251215FEAVKB2CS00F    4 021S3121250307698FEAVK      612897               
D20260105260FEAVK-612898        100442000218000210000013000029000008000000020251215FEAVKB2CS00F    4 021S3121250307379FEAVK      612898               
D20260105260FEAVK-612900        100442000218000210000013000029000008000000020251215FEAVKB2CS00F    4 021S3121250308125FEAVK      612900               
D20260105260FEAVK-612901        100442000218000210000013000029000008000000020251215FEAVKB2CS00F    4 021S3121250308646FEAVK      612901               
D20260105260FEAVK-612903        100442000218000210000013000029000008000000020251215FEAVKB2CS00F    4 021S3121250308659FEAVK      612903               
D20260105260FEAVK-612907        100442000218000210000013000029000008000000020251225FEAVKB2CS00F    4 632S3121250308675FEAVK      612907               
D20260105260FEAVK-612909        100442000218000210000013000029000008000000020251215FEAVKB2CS00F    4 021S3121250309489FEAVK      612909               
D20260105260FEAVK-612915        100442000218000210000013000029000008000000020251215FEAVKB2CS00F    4 021S3121250310249FEAVK      612915               
D20260105260FEAVK-612966        100442000218000210000013000029000008000000020251225FEAVKB2CS00F    4 632S3121250319031FEAVK      612966               
D20260105260FEAV0-620165        100442000218000210000013000029000008000000020251202FEAV0E32S00G    5 012S3121250311040FEAV0      620165               
D20260105260FEA80-610171        100442000218000210000013000029000008000000020251209FEA80E43SK0G    4 622S3121240310637FEA80      610171               
D20260105260FEB80-620270        100442000218000210000013000029000008000000020251215FEB80E32S00G    5 012S3121250333543FEB80      620270               
D20260105260FEB80-620328        100442000218000210000013000029000008000000020251209FEB80G44S00G    5 012S3121250342222FEB80      620328               
D20260105260FEB90-611160        100442000218000210000013000029000008000000020251208FEB90E74S00H    4 151S3121250108754FEB90      611160               
D20260105260FEB90-620090        100442000218000210000013000029000008000000020251209FEB90G73S00H    5 012S3121250315039FEB90      620090               
D20260105260FEB90-620153        100442000218000210000013000029000008000000020251203FEB90E72S00H    5 151S3121250309548FEB90      620153               
D20260105260FEB90-620162        100442000218000210000013000029000008000000020251225FEB90G73S00H    5 012S3121250312232FEB90      620162               
D20260105260FEB90-620187        100442000218000210000013000029000008000000020251223FEB90G73S00H    5 012S3121250316898FEB90      620187               
D20260105260FECS0-620003        100442000218000210000013000029000008000000020251211FECS0K73S00H    5 012S3121250346833FECS0      620003               
D20260105360FBA00-610729        100442000218000210000013000029000008000000020251201FBA00B11W00E    4 012S3121250208340FBA00      610729               
D20260105360FBA00-620092        100442000218000210000013000029000008000000020251209FBA00B11S00E    5 022S3121250334272FBA00      620092               
D20260105360FBA00-620097        100442000218000210000013000029000008000000020251208FBA00B11S00E    5 012S3121250340066FBA00      620097               
D20260105360FBA00-620098        100442000218000210000013000029000008000000020251217FBA00B11W00E    5 012S3121250337503FBA00      620098               
D20260105360FBA00-620152        100442000218000210000013000029000008000000020251223FBA00B11W00E    5 012S3121250363067FBA00      620152               
D20260105320MS06GP-15690        105409000218000807000013000029000008000000020251201MS06GPHMCV      8 013B1121250287710MS06GP      15690               
D20260105330BE740G-450381       101684000284000462000013000029000008000000020251225BE740GBAH       6 012B1121250360622BE740G     450381               
D20260105330BE740J-450059       101684000284000462000013000029000008000000020251209BE740JBAH       6 012B1121250316133BE740J     450059               
