D20260105220FP84VD-505184       100907000218000210000013000029000008000000020251202FP84VDR3XKB     2 027L3121250229866FP84VD     505184               
D20260105220FP84VD-505209       100907000218000210000013000029000008000000020251202FP84VDR3XKB     2 027L3121250239854FP84VD     505209               
D20260105220FP84VE-500258       100907000218000210000013000029000008000000020251201FP84VER3XKTC    1 027L3121250080074FP84VE     500258               
D20260105220FP84VE-505171       100907000218000210000013000029000008000000020251201FP84VER3XKC     2 027L3121250238877FP84VE     505171               
D20260105220FP84VE-505198       100907000218000210000013000029000008000000020251203FP84VER3XKB     2 027L3121250258404FP84VE     505198               
D20260105220FP84VG-505010       100907000218000210000013000029000008000000020251212FP84VGR2XCB     2 027L3121250235142FP84VG     505010               
D20260105220FS84HZ-500824       100907000218000210000013000029000008000000020251202FS84HVZ2B       1 021L3121250105612FS84HZ     500824               
D20260105220FS84VZ-502031       100907000218000210000013000029000008000000020251202FS84VVZ1TB      1 021L3121250189739FS84VZ     502031               
D20260105220FS84VZ-505128       100907000218000210000013000029000008000000020251201FS84VVZ1TB      2 021L3121250198939FS84VZ     505128               
D20260105220FS84VZ-505617       100907000218000210000013000029000008000000020251210FS84VVZ1TB      2 021L3121250296789FS84VZ     505617               
D20260105220FS84VZ-505684       100907000218000210000013000029000008000000020251219FS84VVZ1TB      2 021L3121250309375FS84VZ     505684               
D20260105220FS85HZ-500223       100907000218000210000013000029000008000000020251202FS85HVZ2B       1 632L3121250094602FS85HZ     500223               
D20260105220FS85HZ-500232       100907000218000210000013000029000008000000020251226FS85HVZ2B       1 632L3121250112728FS85HZ     500232               
D20260105220FS85HZ-505003       100907000218000210000013000029000008000000020251222FS85HVZ2C       2 632L3121250144352FS85HZ     505003               
D20260105220FS85HZ-505095       100907000218000210000013000029000008000000020251205FS85HVZ3B       2 021L3121250261749FS85HZ     505095               
D20260105220FU84HZ-500271       100907000218000210000013000029000008000000020251202FU84HUZ2B       1 021L3121250111233FU84HZ     500271               
D20260105220FU84VZ-500379       100907000218000210000013000029000008000000020251203FU84VUZ2TC      1 021L3121250108073FU84VZ     500379               
D20260105220FV80HY-500088       100907000218000210000013000029000008000000020251226FV80HPYK2B      1 012L3121250122400FV80HY     500088               
D20260105220FV80VJ-505079       100907000218000210000013000029000008000000020251201FV80VJR5XKC     2 027L3121250251940FV80VJ     505079               
D20260105220FV80VJ-505082       100907000218000210000013000029000008000000020251201FV80VJR5XKC     2 027L3121250251722FV80VJ     505082               
D20260105220FV80VX-505051       100907000218000210000013000029000008000000020251223FV80VJXD2C      2 022L3121250203677FV80VX     505051               
D20260105220FV80VX-505057       100907000218000210000013000029000008000000020251203FV80VJXD1B      2 022L3121250210682FV80VX     505057               
D20260105220FV80VX-505111       100907000218000210000013000029000008000000020251219FV80VJXD1B      2 022L3121250277953FV80VX     505111               
D20260105220FV80VY-505011       100907000218000210000013000029000008000000020251224FV80VPYP4XTC    2 150L3121250155691FV80VY     505011               
D20260105220FV84VJ-500013       100907000218000210000013000029000008000000020251201FV84VJR4XHTC    1 027L3121250120042FV84VJ     500013               
D20260105220FY84HY-500017       100907000218000210000013000029000008000000020251226FY84HTY2B       1 632L3121250010468FY84HY     500017               
D20260105240FK62F-621506        100650000218000210000013000029000008000000020251201FK62FD4D        9 022M3121250257674FK62F      621506               
D20260105240FK62F-621579        100650000218000210000013000029000008000000020251211FK62FE4         9 641M3121250271551FK62F      621579               
D20260105240FK65F-620713        100650000218000210000013000029000008000000020251223FK65FK5E        9 632M3121240308627FK65F      620713               
D20260105240FK65F-621770        100650000218000210000013000029000008000000020251208FK65FK4E        9 012M3121250265842FK65F      621770               
D20260105240FK72F-621604        100650000218000210000013000029000008000000020251224FK72FE4         9 151M3121250216983FK72F      621604               
D20260105240FK72F-621798        100650000218000210000013000029000008000000020251224FK72FC4M        9 555M3121250253308FK72F      621798               
D20260105240FK72F-621807        100650000218000210000013000029000008000000020251202FK72FH4K        9 012M3121250257179FK72F      621807               
D20260105240FK72F-621825        100650000218000210000013000029000008000000020251201FK72FC4M        9 555M3121250259003FK72F      621825               
D20260105240FK72F-621855        100650000218000210000013000029000008000000020251203FK72FC4M        9 555M3121250268375FK72F      621855               
D20260105240FK72F-621880        100650000218000210000013000029000008000000020251211FK72FC4D        9 022M3121250273078FK72F      621880               
D20260105240FK72F-621908        100650000218000210000013000029000008000000020251218FK72FC4M        9 555M3121250279991FK72F      621908               
D20260105240FK72F-621922        100650000218000210000013000029000008000000020251202FK72FH4K        9 012M3121250290534FK72F      621922               
D20260105240FK72F-622110        100650000218000210000013000029000008000000020251225FK72FH4         9 021M3121250335060FK72F      622110               
D20260105240FK72N-620399        100650000218000210000013000029000008000000020251201FK72NE          9 641M3121250233827FK72N      620399               
D20260105240FK75F-620257        100650000218000210000013000029000008000000020251202FK75FJ4         9 632M3121250294725FK75F      620257               
D20260105240FK75F-620258        100650000218000210000013000029000008000000020251204FK75FJ4         9 632M3121250296268FK75F      620258               
D20260105240FK75F-620259        100650000218000210000013000029000008000000020251204FK75FJ4         9 632M3121250298583FK75F      620259               
D20260105240FK75F-620260        100650000218000210000013000029000008000000020251204FK75FJ4         9 632M3121250301502FK75F      620260               
D20260105240FK75F-620261        100650000218000210000013000029000008000000020251204FK75FJ4         9 632M3121250305113FK75F      620261               
D20260105260FBAV0-610618        100442000218000210000013000029000008000000020251208FBAV0B22S00G    4 643S3121250025493FBAV0      610618               
D20260105260FBAV0-611034        100442000218000210000013000029000008000000020251208FBAV0B33S00G    4 012S3121250186785FBAV0      611034               
D20260105260FBAV0-611137        100442000218000210000013000029000008000000020251201FBAV0B34S00G    4 151S3121250240294FBAV0      611137               
D20260105260FBAV0-611142        100442000218000210000013000029000008000000020251203FBAV0B31S00G    4 012S3121250243424FBAV0      611142               
D20260105260FBAV0-620061        100442000218000210000013000029000008000000020251205FBAV0B22S00G    5 021S3121250297056FBAV0      620061               
D20260105260FBAV0-620064        100442000218000210000013000029000008000000020251202FBAV0B21S00G    5 632S3121250300105FBAV0      620064               
D20260105260FBAV0-620070        100442000218000210000013000029000008000000020251224FBAV0B34S00G    5 022S3121250300134FBAV0      620070               
D20260105260FBAV0-620074        100442000218000210000013000029000008000000020251215FBAV0B21S00G    5 632S3121250300990FBAV0      620074               
D20260105260FBAV0-620107        100442000218000210000013000029000008000000020251218FBAV0B34S00G    5 043S3121250314137FBAV0      620107               
D20260105260FBAV0-620110        100442000218000210000013000029000008000000020251224FBAV0B34S00G    5 022S3121250315707FBAV0      620110               
D20260105260FBAV0-620112        100442000218000210000013000029000008000000020251224FBAV0B34S00G    5 022S3121250316191FBAV0      620112               
D20260105260FBA20-613307        100442000218000210000013000029000008000000020251201FBA20B21W00F    4 022S3121250240470FBA20      613307               
D20260105260FBA20-620005        100442000218000210000013000029000008000000020251202FBA20B21W00F    5 012S3121250275928FBA20      620005               
D20260105260FBA20-620008        100442000218000210000013000029000008000000020251203FBA20B22W00F    5 012S3121250278275FBA20      620008               
D20260105260FBA20-620020        100442000218000210000013000029000008000000020251202FBA20B21W00F    5 012S3121250276699FBA20      620020               
D20260105260FBA20-620056        100442000218000210000013000029000008000000020251208FBA20B21W00F    5 012S3121250284984FBA20      620056               
D20260105260FBA20-620186        100442000218000210000013000029000008000000020251218FBA20B22S00F    5 012S3121250303801FBA20      620186               
D20260105260FBA20-620197        100442000218000210000013000029000008000000020251208FBA20B21W00F    5 012S3121250305807FBA20      620197               
D20260105260FBA20-620209        100442000218000210000013000029000008000000020251205FBA20B21S00F    5 012S3121250307005FBA20      620209               
D20260105260FBA20-620232        100442000218000210000013000029000008000000020251211FBA20B21W00F    5 012S3121250309447FBA20      620232               
D20260105260FBA20-620254        100442000218000210000013000029000008000000020251211FBA20B21W00F    5 012S3121250312665FBA20      620254               
D20260105260FBA20-620316        100442000218000210000013000029000008000000020251203FBA20B22S00F    5 012S3121250319712FBA20      620316               
D20260105260FBA20-620317        100442000218000210000013000029000008000000020251201FBA20B21S00F    5 012S3121250319448FBA20      620317               
D20260105260FBA20-620335        100442000218000210000013000029000008000000020251201FBA20B21S00F    5 012S3121250320585FBA20      620335               
D20260105260FBA20-620462        100442000218000210000013000029000008000000020251208FBA20B21S00F    5 012S3121250331635FBA20      620462               
D20260105260FBA20-620474        100442000218000210000013000029000008000000020251210FBA20B22W00F    5 012S3121250334298FBA20      620474               
D20260105260FBA60-612673        100442000218000210000013000029000008000000020251201FBA60B32S00G    4 022S3121250177787FBA60      612673               
D20260105260FBA60-612956        100442000218000210000013000029000008000000020251201FBA60B32SD0G    4 022S3121250215791FBA60      612956               
D20260105260FBA60-620051        100442000218000210000013000029000008000000020251201FBA60B32S00G    5 022S3121250289165FBA60      620051               
D20260105260FBA60-620091        100442000218000210000013000029000008000000020251204FBA60B21S00G    5 022S3121250305865FBA60      620091               
D20260105260FBA60-620096        100442000218000210000013000029000008000000020251201FBA60B32S00G    5 022S3121250295627FBA60      620096               
D20260105260FBA60-620102        100442000218000210000013000029000008000000020251201FBA60B32S00G    5 022S3121250297203FBA60      620102               
D20260105260FBA60-620109        100442000218000210000013000029000008000000020251201FBA60B32S00G    5 022S3121250295643FBA60      620109               
D20260105260FBA60-620110        100442000218000210000013000029000008000000020251225FBA60B32S00G    5 022S3121250297232FBA60      620110               
D20260105260FBA60-620130        100442000218000210000013000029000008000000020251224FBA60B32S00G    5 022S3121250301977FBA60      620130               
D20260105260FBA60-620191        100442000218000210000013000029000008000000020251202FBA60B31S00G    5 022S3121250304468FBA60      620191               
D20260105260FBA60-620199        100442000218000210000013000029000008000000020251202FBA60B34S00G    5 022S3121250304992FBA60      620199               
D20260105260FBA60-620239        100442000218000210000013000029000008000000020251211FBA60B21S00G    5 022S3121250318823FBA60      620239               
D20260105260FBA60-620257        100442000218000210000013000029000008000000020251211FBA60B31S00G    5 022S3121250324284FBA60      620257               
D20260105260FBA60-620262        100442000218000210000013000029000008000000020251211FBA60B31S00G    5 022S3121250320947FBA60      620262               
D20260105260FBA60-620264        100442000218000210000013000029000008000000020251211FBA60B21S00G    5 022S3121250326033FBA60      620264               
D20260105260FBA60-620265        100442000218000210000013000029000008000000020251204FBA60B32S00G    5 022S3121250320950FBA60      620265               
D20260105260FBA60-620268        100442000218000210000013000029000008000000020251201FBA60B32S00G    5 022S3121250326538FBA60      620268               
D20260105260FBA60-620269        100442000218000210000013000029000008000000020251201FBA60B32S00G    5 022S3121250324343FBA60      620269               
D20260105260FBA60-620273        100442000218000210000013000029000008000000020251211FBA60B31S00G    5 022S3121250324369FBA60      620273               
D20260105260FBA60-620274        100442000218000210000013000029000008000000020251211FBA60B31S00G    5 022S3121250324880FBA60      620274               
D20260105260FBA60-620286        100442000218000210000013000029000008000000020251215FBA60B32S00G    5 022S3121250330166FBA60      620286               
D20260105260FBA60-620287        100442000218000210000013000029000008000000020251204FBA60B32S00G    5 022S3121250326088FBA60      620287               
D20260105260FBA60-620292        100442000218000210000013000029000008000000020251211FBA60B32S00G    5 022S3121250328169FBA60      620292               
D20260105260FBA60-620294        100442000218000210000013000029000008000000020251211FBA60B21S00G    5 022S3121250328185FBA60      620294               
D20260105260FBA60-620306        100442000218000210000013000029000008000000020251215FBA60B32S00G    5 022S3121250331680FBA60      620306               
D20260105260FBA60-620308        100442000218000210000013000029000008000000020251211FBA60B31S00G    5 012S3121250328736FBA60      620308               
D20260105260FBA60-620309        100442000218000210000013000029000008000000020251211FBA60B21S00G    5 022S3121250328749FBA60      620309               
D20260105260FBA60-620312        100442000218000210000013000029000008000000020251211FBA60B31S00G    5 022S3121250330238FBA60      620312               
D20260105260FBA60-620314        100442000218000210000013000029000008000000020251215FBA60B32S00G    5 022S3121250333341FBA60      620314               
D20260105260FBA60-620317        100442000218000210000013000029000008000000020251201FBA60B32S00G    5 022S3121250330241FBA60      620317               
D20260105260FBA60-620320        100442000218000210000013000029000008000000020251201FBA60B32S00G    5 022S3121250330254FBA60      620320               
D20260105260FBA60-620321        100442000218000210000013000029000008000000020251211FBA60B31S00G    5 022S3121250330267FBA60      620321               
D20260105260FBA60-620329        100442000218000210000013000029000008000000020251215FBA60B32S00G    5 022S3121250339495FBA60      620329               
D20260105260FBA60-620332        100442000218000210000013000029000008000000020251210FBA60B32S00G    5 022S3121250333820FBA60      620332               
D20260105260FBA60-620333        100442000218000210000013000029000008000000020251211FBA60B21S00G    5 022S3121250330296FBA60      620333               
D20260105260FBA60-620339        100442000218000210000013000029000008000000020251202FBA60B32SA0G    5 022S3121250324402FBA60      620339               
D20260105260FBA60-620362        100442000218000210000013000029000008000000020251211FBA60B21S00G    5 022S3121250333875FBA60      620362               
D20260105260FBA60-620363        100442000218000210000013000029000008000000020251222FBA60B31S00G    5 022S3121250333888FBA60      620363               
D20260105260FBA60-620377        100442000218000210000013000029000008000000020251212FBA60B32S00G    5 022S3121250335291FBA60      620377               
D20260105260FBA60-620386        100442000218000210000013000029000008000000020251211FBA60B21S00G    5 022S3121250338144FBA60      620386               
D20260105260FBA60-620462        100442000218000210000013000029000008000000020251222FBA60B32S00G    5 022S3121250342639FBA60      620462               
D20260105260FDA20-620016        100442000218000210000013000029000008000000020251205FDA20B21S00F    5 632S3121250313844FDA20      620016               
D20260105260FDA20-620028        100442000218000210000013000029000008000000020251224FDA20B21S00F    5 012S3121250344534FDA20      620028               
D20260105260FDA60-610147        100442000218000210000013000029000008000000020251201FDA60B31S00G    4 022S3121250245882FDA60      610147               
D20260105260FEAVK-612305        100442000218000210000013000029000008000000020251226FEAVKB2CS00F    4 021S3121250227509FEAVK      612305               
D20260105260FEAVK-612528        100442000218000210000013000029000008000000020251205FEAVKB2CS00F    4 021S3121250251735FEAVK      612528               
D20260105260FEAVK-612774        100442000218000210000013000029000008000000020251226FEAVKB2CS00F    4 021S3121250285310FEAVK      612774               
D20260105260FEAVK-612893        100442000218000210000013000029000008000000020251211FEAVKB2CS00F    4 021S3121250306594FEAVK      612893               
D20260105260FEAVK-612899        100442000218000210000013000029000008000000020251211FEAVKB2CS00F    4 021S3121250306624FEAVK      612899               
D20260105260FEAVK-612958        100442000218000210000013000029000008000000020251226FEAVKB2CS00F    4 021S3121250318315FEAVK      612958               
D20260105260FEAV0-611155        100442000218000210000013000029000008000000020251208FEAV0B24SGUG    4 641S3121250010181FEAV0      611155               
D20260105260FEAV0-612469        100442000218000210000013000029000008000000020251218FEAV0E31S00G    4 021S3121250242506FEAV0      612469               
D20260105260FEAV0-620134        100442000218000210000013000029000008000000020251212FEAV0C31S00G    5 012S3121250303999FEAV0      620134               
D20260105260FEAV0-620147        100442000218000210000013000029000008000000020251201FEAV0C31S00G    5 012S3121250307047FEAV0      620147               
D20260105260FEAV0-620149        100442000218000210000013000029000008000000020251212FEAV0B21SU0G    5 632S3121250308183FEAV0      620149               
D20260105260FEAV0-620152        100442000218000210000013000029000008000000020251212FEAV0B21SU0G    5 632S3121250308196FEAV0      620152               
D20260105260FEAV0-620156        100442000218000210000013000029000008000000020251212FEAV0B21SU0G    5 632S3121250308239FEAV0      620156               
D20260105260FEAV0-620162        100442000218000210000013000029000008000000020251224FEAV0B32SK0G    5 021S3121250311011FEAV0      620162               
D20260105260FEAV0-620178        100442000218000210000013000029000008000000020251211FEAV0E21S00G    5 012S3121250313280FEAV0      620178               
D20260105260FEA20-620089        100442000218000210000013000029000008000000020251208FEA20C21S00F    5 012S3121250338939FEA20      620089               
D20260105260FEB50-620042        100442000218000210000013000029000008000000020251209FEB50E22S00G    5 012S3121250288511FEB50      620042               
D20260105260FEB80-611728        100442000218000210000013000029000008000000020251224FEB80E42S00G    4 012S3121250121003FEB80      611728               
D20260105260FEB80-612571        100442000218000210000013000029000008000000020251216FEB80E41S00G    4 012S3121250277706FEB80      612571               
D20260105260FEB80-620006        100442000218000210000013000029000008000000020251226FEB80G32S00G    5 021S3121250302909FEB80      620006               
D20260105260FEB80-620105        100442000218000210000013000029000008000000020251216FEB80E43S00H    5 632S3121250303221FEB80      620105               
D20260105260FEB90-610409        100442000218000210000013000029000008000000020251225FEB90G71S00H    4 012S3121240259374FEB90      610409               
D20260105260FEB90-610948        100442000218000210000013000029000008000000020251201FEB90C74S00H    4 643S3121250054477FEB90      610948               
D20260105260FEB90-611020        100442000218000210000013000029000008000000020251212FEB90C74SG0H    4 641S3121250073320FEB90      611020               
D20260105260FEB90-611569        100442000218000210000013000029000008000000020251202FEB90G72S00H    4 012S3121250219849FEB90      611569               
D20260105260FEB90-611616        100442000218000210000013000029000008000000020251201FEB90C74SG0H    4 641S3121250233436FEB90      611616               
D20260105260FEB90-611674        100442000218000210000013000029000008000000020251211FEB90C74SG0H    4 641S3121250242580FEB90      611674               
D20260105260FEB90-611740        100442000218000210000013000029000008000000020251211FEB90C74SG0H    4 641S3121250256075FEB90      611740               
D20260105260FEB90-620004        100442000218000210000013000029000008000000020251201FEB90G74S00H    5 012S3121250302130FEB90      620004               
D20260105260FEB90-620043        100442000218000210000013000029000008000000020251201FEB90G72S00H    5 021S3121250309232FEB90      620043               
D20260105260FEB90-620058        100442000218000210000013000029000008000000020251202FEB90G72S00H    5 012S3121250295281FEB90      620058               
D20260105260FEB90-620288        100442000218000210000013000029000008000000020251208FEB90E72S00H    5 012S3121250338317FEB90      620288               
D20260105260FED90-610207        100442000218000210000013000029000008000000020251201FED90K74S00H    4 021S3121250127290FED90      610207               
D20260105260FED90-620012        100442000218000210000013000029000008000000020251201FED90H73S00H    5 012S3121250311398FED90      620012               
D20260105260FED90-620026        100442000218000210000013000029000008000000020251210FED90K73S00H    5 012S3121250304107FED90      620026               
D20260105260FGA50-620025        100442000218000210000013000029000008000000020251217FGA50C31SK0G    5 012S3121250344228FGA50      620025               
D20260105360FBA00-620052        100442000218000210000013000029000008000000020251222FBA00B11S00E    5 012S3121250302752FBA00      620052               
D20260105360FBA00-620090        100442000218000210000013000029000008000000020251204FBA00B12S00F    5 012S3121250333774FBA00      620090               
D20260105360FBA00-620104        100442000218000210000013000029000008000000020251208FBA00B12W00F    5 012S3121250340079FBA00      620104               
D20260105360FBA00-620131        100442000218000210000013000029000008000000020251226FBA00B12W00F    5 030S3121250351334FBA00      620131               
D20260105330BE740E-450070       101684000284000462000013000029000008000000020251201BE740EBAH       6 012B1121250317950BE740E     450070               
D20260105330BE740E-450071       101684000284000462000013000029000008000000020251201BE740EBAH       6 012B1121250317963BE740E     450071               
D20260105330BE740G-450339       101684000284000462000013000029000008000000020251217BE740GBAH       6 012B1121250331550BE740G     450339               
D20260105330BG740G-450004       101684000284000462000013000029000008000000020251218BG740GBAGH      6 012B1121250210783BG740G     450004               
D20260105330BG740G-450078       101684000284000462000013000029000008000000020251204BG740GBAH       6 012B1121250312636BG740G     450078               
D20260105330BG740G-450105       101684000284000462000013000029000008000000020251224BG740GBAH       6 999B1121250360680BG740G     450105               
