D20260202220FP84VE-500217       100907000218000210000013000029000008000000020260114FP84VER3K5F     1 027L3121250022407FP84VE     500217               
D20260202220FS84HZ-505535       100907000218000210000013000029000008000000020260123FS84HVZ2B       2 021L3121250317048FS84HZ     505535               
D20260202220FS84VZ-505322       100907000218000210000013000029000008000000020260106FS84VVZ1B       2 632L3121250234325FS84VZ     505322               
D20260202220FS84VZ-505529       100907000218000210000013000029000008000000020260105FS84VVZ1TC      2 021L3121250274329FS84VZ     505529               
D20260202220FS84VZ-505546       100907000218000210000013000029000008000000020260120FS84VVZ1TB      2 021L3121250278510FS84VZ     505546               
D20260202220FS84VZ-505688       100907000218000210000013000029000008000000020260120FS84VVZ1TB      2 021L3121250309939FS84VZ     505688               
D20260202220FS85GZ-500007       100907000218000210000013000029000008000000020260105FS85GUZ2SB      1 021L3121250124334FS85GZ     500007               
D20260202220FS85GZ-500010       100907000218000210000013000029000008000000020260122FS85GUZ2SB      1 021L3121250169942FS85GZ     500010               
D20260202220FS85HZ-500208       100907000218000210000013000029000008000000020260122FS85HVZ2B       1 021L3121250079621FS85HZ     500208               
D20260202220FS85VZ-505097       100907000218000210000013000029000008000000020260113FS85VVZ1TB      2 021L3121250310571FS85VZ     505097               
D20260202220FU80HY-500025       100907000218000210000013000029000008000000020260105FU80HPYK2B      1 012L3121250045378FU80HY     500025               
D20260202220FU80HY-500032       100907000218000210000013000029000008000000020260116FU80HNY2B       1 513L3121250101388FU80HY     500032               
D20260202220FU84HZ-505078       100907000218000210000013000029000008000000020260105FU84HUZ2B       2 012L3121250251676FU84HZ     505078               
D20260202220FU84HZ-505113       100907000218000210000013000029000008000000020260109FU84HTZ2B       2 632L3121250285251FU84HZ     505113               
D20260202220FV80GX-505060       100907000218000210000013000029000008000000020260113FV80GJXM2B      2 555L3121250242317FV80GX     505060               
D20260202220FV80HZ-500068       100907000218000210000013000029000008000000020260114FV80HTZK2B      1 012L3121250082070FV80HZ     500068               
D20260202220FV80VJ-505097       100907000218000210000013000029000008000000020260105FV80VJR5XKTC    2 027L3121250274925FV80VJ     505097               
D20260202220FV80VJ-505145       100907000218000210000013000029000008000000020260105FV80VJR5XKB     2 027L3121250333064FV80VJ     505145               
D20260202220FV80VX-505035       100907000218000210000013000029000008000000020260105FV80VJXD1B      2 022L3121250190456FV80VX     505035               
D20260202220FV80VY-500170       100907000218000210000013000029000008000000020260106FV80VPY1B       1 022L3121250080407FV80VY     500170               
D20260202220FV80VZ-505080       100907000218000210000013000029000008000000020260121FV80VTZK1B      2 012L3121250305533FV80VZ     505080               
D20260202220FY84HY-500018       100907000218000210000013000029000008000000020260126FY84HTY2B       1 632L3121250021912FY84HY     500018               
D20260202240FK62F-621382        100650000218000210000013000029000008000000020260130FK62FD4D        9 022M3121250235562FK62F      621382               
D20260202240FK62F-621437        100650000218000210000013000029000008000000020260119FK62FD5D        9 022M3121250246667FK62F      621437               
D20260202240FK62F-621455        100650000218000210000013000029000008000000020260127FK62FJ5         9 012M3121250247569FK62F      621455               
D20260202240FK65F-620634        100650000218000210000013000029000008000000020260105FK65FK5E        9 632M3121240292999FK65F      620634               
D20260202240FK65F-621724        100650000218000210000013000029000008000000020260129FK65FK4E        9 021M3121250251836FK65F      621724               
D20260202240FK65F-622301        100650000218000210000013000029000008000000020260116FK65FJ5         9 012M3121250344723FK65F      622301               
D20260202240FK72F-621239        100650000218000210000013000029000008000000020260107FK72FJ4         9 012M3121250141887FK72F      621239               
D20260202240FK72F-621525        100650000218000210000013000029000008000000020260129FK72FE4         9 151M3121250199857FK72F      621525               
D20260202240FK72F-621691        100650000218000210000013000029000008000000020260107FK72FE4         9 641M3121250233465FK72F      621691               
D20260202240FK72F-621708        100650000218000210000013000029000008000000020260128FK72FJ4K        9 012M3121250239825FK72F      621708               
D20260202240FK72F-621736        100650000218000210000013000029000008000000020260128FK72FJ4K        9 012M3121250243828FK72F      621736               
D20260202240FK72F-621820        100650000218000210000013000029000008000000020260129FK72FE4         9 151M3121250257397FK72F      621820               
D20260202240FK72F-621841        100650000218000210000013000029000008000000020260106FK72FC4M        9 555M3121250262696FK72F      621841               
D20260202240FK72F-621857        100650000218000210000013000029000008000000020260106FK72FC4M        9 555M3121250268388FK72F      621857               
D20260202240FK72F-621975        100650000218000210000013000029000008000000020260119FK72FC4D        9 022M3121250299919FK72F      621975               
D20260202240FK72F-622032        100650000218000210000013000029000008000000020260127FK72FE4         9 151M3121250315534FK72F      622032               
D20260202240FK72N-620454        100650000218000210000013000029000008000000020260126FK72NE          9 151M3121250339280FK72N      620454               
D20260202240FK75F-620276        100650000218000210000013000029000008000000020260109FK75FJ4E        9 632M3121250334520FK75F      620276               
D20260202240FK75F-620279        100650000218000210000013000029000008000000020260109FK75FJ4E        9 632M3121250338375FK75F      620279               
D20260202240FK75F-620281        100650000218000210000013000029000008000000020260109FK75FJ4E        9 632M3121250339743FK75F      620281               
D20260202240FK75F-620284        100650000218000210000013000029000008000000020260109FK75FJ4E        9 632M3121250344329FK75F      620284               
D20260202240FK75F-620287        100650000218000210000013000029000008000000020260109FK75FJ4E        9 632M3121250348868FK75F      620287               
D20260202240FK75N-620016        100650000218000210000013000029000008000000020260122FK75NJE         9 021M3121250236927FK75N      620016               
D20260202240FK75N-620019        100650000218000210000013000029000008000000020260116FK75NJ          9 021M3121250255548FK75N      620019               
D20260202240FK75N-620020        100650000218000210000013000029000008000000020260126FK75NJ          9 021M3121250257720FK75N      620020               
D20260202240FK75N-620024        100650000218000210000013000029000008000000020260126FK75NJ          9 021M3121250265552FK75N      620024               
D20260202240FK75N-620026        100650000218000210000013000029000008000000020260129FK75NJE         9 021M3121250266614FK75N      620026               
D20260202240FK75N-620028        100650000218000210000013000029000008000000020260129FK75NJE         9 021M3121250275393FK75N      620028               
D20260202260FBAV0-611095        100442000218000210000013000029000008000000020260105FBAV0B21S00G    4 632S3121250216462FBAV0      611095               
D20260202260FBAV0-620119        100442000218000210000013000029000008000000020260116FBAV0B34S00G    5 022S3121250318025FBAV0      620119               
D20260202260FBAV0-620160        100442000218000210000013000029000008000000020260126FBAV0B34S00G    5 012S3121250331619FBAV0      620160               
D20260202260FBAV0-620192        100442000218000210000013000029000008000000020260105FBAV0B31S00G    5 012S3121250337343FBAV0      620192               
D20260202260FBA20-620185        100442000218000210000013000029000008000000020260113FBA20B22S00F    5 012S3121250303797FBA20      620185               
D20260202260FBA20-620280        100442000218000210000013000029000008000000020260107FBA20B21W00F    5 012S3121250316221FBA20      620280               
D20260202260FBA20-620337        100442000218000210000013000029000008000000020260113FBA20B21S00F    5 012S3121250320602FBA20      620337               
D20260202260FBA20-620349        100442000218000210000013000029000008000000020260107FBA20B21W00F    5 012S3121250320729FBA20      620349               
D20260202260FBA20-620391        100442000218000210000013000029000008000000020260127FBA20B21S00F    5 012S3121250323890FBA20      620391               
D20260202260FBA20-620479        100442000218000210000013000029000008000000020260126FBA20B21S00F    5 012S3121250334706FBA20      620479               
D20260202260FBA20-620532        100442000218000210000013000029000008000000020260126FBA20B21S00F    5 012S3121250343863FBA20      620532               
D20260202260FBA20-620559        100442000218000210000013000029000008000000020260109FBA20B21W00F    5 012S3121250344879FBA20      620559               
D20260202260FBA20-620781        100442000218000210000013000029000008000000020260124FBA20B21S00F    5 021S3121260000620FBA20      620781               
D20260202260FBA20-620793        100442000218000210000013000029000008000000020260126FBA20B21W00F    5 012S3121260003368FBA20      620793               
D20260202260FBA20-620816        100442000218000210000013000029000008000000020260120FBA20B21W00F    5 012S3121260005407FBA20      620816               
D20260202260FBA20-620831        100442000218000210000013000029000008000000020260127FBA20B22W00F    5 012S3121260007852FBA20      620831               
D20260202260FBA20-620841        100442000218000210000013000029000008000000020260126FBA20B21W00F    5 012S3121260009409FBA20      620841               
D20260202260FBA60-610101        100442000218000210000013000029000008000000020260108FBA60B31S00G    4 022S3121240167347FBA60      610101               
D20260202260FBA60-610681        100442000218000210000013000029000008000000020260127FBA60B32S00G    4 022S3121240223399FBA60      610681               
D20260202260FBA60-612518        100442000218000210000013000029000008000000020260114FBA60B32S00G    4 022S3121250154425FBA60      612518               
D20260202260FBA60-620276        100442000218000210000013000029000008000000020260106FBA60B32S00G    5 022S3121250326046FBA60      620276               
D20260202260FBA60-620315        100442000218000210000013000029000008000000020260108FBA60B32S00G    5 022S3121250343951FBA60      620315               
D20260202260FBA60-620350        100442000218000210000013000029000008000000020260130FBA60B32S00G    5 022S3121250331778FBA60      620350               
D20260202260FBA60-620427        100442000218000210000013000029000008000000020260126FBA60B21S00G    5 022S3121250346022FBA60      620427               
D20260202260FBA60-620494        100442000218000210000013000029000008000000020260108FBA60B22S00G    5 022S3121250358146FBA60      620494               
D20260202260FBA60-620603        100442000218000210000013000029000008000000020260107FBA60B32S00G    5 022S3121250368873FBA60      620603               
D20260202260FBA60-620673        100442000218000210000013000029000008000000020260127FBA60B32S00G    5 022S3121260011536FBA60      620673               
D20260202260FDA20-620034        100442000218000210000013000029000008000000020260120FDA20B21S00F    5 012S3121250356544FDA20      620034               
D20260202260FDA60-610148        100442000218000210000013000029000008000000020260106FDA60B31S00G    4 022S3121250246162FDA60      610148               
D20260202260FDA60-620032        100442000218000210000013000029000008000000020260120FDA60B31S00G    5 022S3121250333413FDA60      620032               
D20260202260FDA60-620039        100442000218000210000013000029000008000000020260120FDA60B31S00G    5 022S3121250341551FDA60      620039               
D20260202260FEAVK-612908        100442000218000210000013000029000008000000020260105FEAVKB2CS00F    4 021S3121250310210FEAVK      612908               
D20260202260FEAV0-612063        100442000218000210000013000029000008000000020260114FEAV0E21SK0G    4 021S3121250136054FEAV0      612063               
D20260202260FEAV0-620121        100442000218000210000013000029000008000000020260105FEAV0E34S00G    5 012S3121250301632FEAV0      620121               
D20260202260FEAV0-620233        100442000218000210000013000029000008000000020260127FEAV0B21SU0G    5 021S3121250324444FEAV0      620233               
D20260202260FEAV0-620302        100442000218000210000013000029000008000000020260105FEAV0E34S00G    5 012S3121250336920FEAV0      620302               
D20260202260FEAV0-620305        100442000218000210000013000029000008000000020260105FEAV0C31S00G    5 012S3121250336946FEAV0      620305               
D20260202260FEAV0-620324        100442000218000210000013000029000008000000020260126FEAV0E33S00G    5 012S3121250340431FEAV0      620324               
D20260202260FEAV0-620556        100442000218000210000013000029000008000000020260109FEAV0E31S00G    5 012S3121260005872FEAV0      620556               
D20260202260FEA20-620019        100442000218000210000013000029000008000000020260108FEA20C21S00F    5 021S3121250306679FEA20      620019               
D20260202260FEA20-620105        100442000218000210000013000029000008000000020260127FEA20C21S00F    5 632S3121250340617FEA20      620105               
D20260202260FEA80-620015        100442000218000210000013000029000008000000020260109FEA80E34S0MG    5 012S3121250285727FEA80      620015               
D20260202260FEBS0-620040        100442000218000210000013000029000008000000020260109FEBS0E71S00H    5 012S3121250338577FEBS0      620040               
D20260202260FEB20-620034        100442000218000210000013000029000008000000020260127FEB20E21S00F    5 012S3121260018843FEB20      620034               
D20260202260FEB50-611829        100442000218000210000013000029000008000000020260129FEB50E22S00G    4 012S3121250181908FEB50      611829               
D20260202260FEB50-611999        100442000218000210000013000029000008000000020260107FEB50C34S00G    4 012S3121250217625FEB50      611999               
D20260202260FEB50-612120        100442000218000210000013000029000008000000020260105FEB50E22S0MG    4 021S3121250244140FEB50      612120               
D20260202260FEB50-620076        100442000218000210000013000029000008000000020260130FEB50E31S00G    5 021S3121250294419FEB50      620076               
D20260202260FEB50-620131        100442000218000210000013000029000008000000020260109FEB50G31S00G    5 012S3121250306028FEB50      620131               
D20260202260FEB50-620215        100442000218000210000013000029000008000000020260105FEB50E32S00G    5 012S3121250332494FEB50      620215               
D20260202260FEB50-620239        100442000218000210000013000029000008000000020260120FEB50E21S00G    5 012S3121250336959FEB50      620239               
D20260202260FEB50-620240        100442000218000210000013000029000008000000020260109FEB50E21S00G    5 012S3121250336500FEB50      620240               
D20260202260FEB50-620245        100442000218000210000013000029000008000000020260126FEB50E22S00G    5 021S3121250338229FEB50      620245               
D20260202260FEB50-620268        100442000218000210000013000029000008000000020260105FEB50E32S00G    5 012S3121250342932FEB50      620268               
D20260202260FEB50-620269        100442000218000210000013000029000008000000020260107FEB50E32S00G    5 021S3121250342684FEB50      620269               
D20260202260FEB50-620314        100442000218000210000013000029000008000000020260105FEB50E32S00G    5 021L3121250351464FEB50      620314               
D20260202260FEB80-612085        100442000218000210000013000029000008000000020260123FEB80G41S00H    4 012S3121250184109FEB80      612085               
D20260202260FEB80-612562        100442000218000210000013000029000008000000020260105FEB80G44S00H    4 012S3121250276615FEB80      612562               
D20260202260FEB80-620033        100442000218000210000013000029000008000000020260127FEB80G41S00H    5 012S3121250304048FEB80      620033               
D20260202260FEB80-620103        100442000218000210000013000029000008000000020260120FEB80G32S00G    5 632S3121250301401FEB80      620103               
D20260202260FEB80-620439        100442000218000210000013000029000008000000020260128FEB80E42S00G    5 021S3121250354317FEB80      620439               
D20260202260FEB90-611124        100442000218000210000013000029000008000000020260105FEB90C74SG0H    4 641S3121250100008FEB90      611124               
D20260202260FEB90-611684        100442000218000210000013000029000008000000020260109FEB90G71S00H    4 012S3121250244212FEB90      611684               
D20260202260FEB90-611699        100442000218000210000013000029000008000000020260120FEB90E71S00H    4 012S3121250246654FEB90      611699               
D20260202260FEB90-611756        100442000218000210000013000029000008000000020260126FEB90G72S00H    4 632S3121250262612FEB90      611756               
D20260202260FEB90-620063        100442000218000210000013000029000008000000020260109FEB90E71S00H    5 641S3121250295858FEB90      620063               
D20260202260FEB90-620066        100442000218000210000013000029000008000000020260129FEB90E71S00H    5 012S3121250296183FEB90      620066               
D20260202260FEB90-620190        100442000218000210000013000029000008000000020260114FEB90G73S00H    5 632S3121250317660FEB90      620190               
D20260202260FEB90-620267        100442000218000210000013000029000008000000020260127FEB90G71S00H    5 012S3121250336119FEB90      620267               
D20260202260FECS0-620005        100442000218000210000013000029000008000000020260123FECS0K73S00H    5 012S3121260003788FECS0      620005               
D20260202260FED90-610209        100442000218000210000013000029000008000000020260129FED90K74S00H    4 021S3121250128697FED90      610209               
D20260202260FED90-620005        100442000218000210000013000029000008000000020260123FED90K74S00H    5 021S3121250283008FED90      620005               
D20260202260FED90-620019        100442000218000210000013000029000008000000020260115FED90K74S00H    5 021S3121250292817FED90      620019               
D20260202260FGA20-620009        100442000218000210000013000029000008000000020260116FGA20E21SK0F    5 012S3121250300769FGA20      620009               
D20260202360FBA00-620056        100442000218000210000013000029000008000000020260119FBA00B11S00E    5 632S3121250304918FBA00      620056               
D20260202360FBA00-620099        100442000218000210000013000029000008000000020260109FBA00B11S00E    5 022S3121250338492FBA00      620099               
D20260202320MP35FK-10009        103889000000000807000013000029000008000000020260128MP35FKFW        8 013B1121260003964MP35FK      10009               
D20260202320MS06GP-15726        105409000218000807000013000029000008000000020260109MS06GPHZMBV     8 013B1121250324718MS06GP      15726               
D20260202330BE740E-450065       101684000284000462000013000029000008000000020260130BE740EBAH       6 012B1121250303654BE740E     450065               
D20260202330BE740G-450302       101684000218000462000013000029000008000000020260114BE740GBAGH      6 012B1121250305706BE740G     450302               
D20260202330BE740G-450433       101684000284000462000013000029000008000000020260128BE740GBAH       6 012B1121260009597BE740G     450433               
D20260202330BE740G-450434       101684000284000462000013000029000008000000020260128BE740GBAH       6 012B1121260016528BE740G     450434               
D20260202330BE740G-450435       101684000284000462000013000029000008000000020260114BE740GBAH       6 999B1121260011044BE740G     450435               
D20260202330BE740G-450438       101684000284000462000013000029000008000000020260123BE740GBAH       6 012B1121260009601BE740G     450438               
D20260202330BE740G-450450       101684000284000462000013000029000008000000020260119BE740GBAH       6 012B1121260012483BE740G     450450               
D20260202330BG740G-450085       101684000284000462000013000029000008000000020260109BG740GBAH       6 012B1121250319868BG740G     450085               
D20260202330BG740G-450086       101684000284000462000013000029000008000000020260116BG740GBAH       6 012B1121250322451BG740G     450086               
D20260202330BG740G-450111       101684000284000462000013000029000008000000020260122BG740GBAH       6 012B1121250367968BG740G     450111               
D20260202330BG740G-450112       101684000284000462000013000029000008000000020260121BG740GBAH       6 012B1121250367971BG740G     450112               
D20260202330BG740G-450133       101684000284000462000013000029000008000000020260128BG740GBAH       6 012B1121260009630BG740G     450133               
