D20260202220FP84VD-505102       100907000218000210000013000029000008000000020260106FP84VDR3XKB     2 027L3121250195132FP84VD     505102               
D20260202220FS84VZ-505211       100907000218000210000013000029000008000000020260120FS84VVZ1TC      2 021L3121250216198FS84VZ     505211               
D20260202240FK62F-621154        100650000218000210000013000029000008000000020260121FK62FK5         9 021M3121250145560FK62F      621154               
D20260202240FK62F-621532        100650000218000210000013000029000008000000020260107FK62FK5E        9 012M3121250261622FK62F      621532               
D20260202240FK62F-621932        100650000218000210000013000029000008000000020260128FK62FK5K        9 012M3121250356078FK62F      621932               
D20260202240FK65F-621742        100650000218000210000013000029000008000000020260121FK65FK5         9 021M3121250257687FK65F      621742               
D20260202240FK65F-621982        100650000218000210000013000029000008000000020260107FK65FK4E        9 632M3121250299892FK65F      621982               
D20260202240FK72F-621524        100650000218000210000013000029000008000000020260121FK72FC4M        9 555M3121250199424FK72F      621524               
D20260202240FK72F-622119        100650000218000210000013000029000008000000020260106FK72FC4D        9 022M3121250352728FK72F      622119               
D20260202240FK72F-622201        100650000218000210000013000029000008000000020260128FK72FC4D        9 022M3121260008695FK72F      622201               
D20260202260FBAV0-611204        100442000218000210000013000029000008000000020260121FBAV0B22S00G    4 021S3121250272596FBAV0      611204               
D20260202260FBAV0-611212        100442000218000210000013000029000008000000020260128FBAV0B22S00G    4 021S3121250272743FBAV0      611212               
D20260202260FBAV0-620025        100442000284000210000013000029000008000000020260130FBAV0B22S00G    5 012S3121250284186FBAV0      620025               
D20260202260FBA20-612746        100442000218000210000013000029000008000000020260121FBA20B22W00F    4 012S3121250167340FBA20      612746               
D20260202260FBA20-620442        100442000218000210000013000029000008000000020260130FBA20B22W00F    5 012S3121250329928FBA20      620442               
D20260202260FBA20-620779        100442000218000210000013000029000008000000020260119FBA20B22S00F    5 012S3121260001708FBA20      620779               
D20260202260FBA20-620780        100442000218000210000013000029000008000000020260119FBA20B22S00F    5 012S3121260001711FBA20      620780               
D20260202260FBA20-620813        100442000218000210000013000029000008000000020260121FBA20B21W00F    5 012S3121260006774FBA20      620813               
D20260202260FBA20-620828        100442000218000210000013000029000008000000020260119FBA20B22W00F    5 012S3121260007171FBA20      620828               
D20260202260FBA20-620829        100442000218000210000013000029000008000000020260119FBA20B22W00F    5 012S3121260007184FBA20      620829               
D20260202260FBA30-610745        100442000218000210000013000029000008000000020260119FBA30B22S00G    4 022S3121250275960FBA30      610745               
D20260202260FBA30-610755        100442000218000210000013000029000008000000020260119FBA30B22S00G    4 022S3121250280995FBA30      610755               
D20260202260FBA60-620064        100442000218000210000013000029000008000000020260119FBA60B32S00G    5 022S3121250290693FBA60      620064               
D20260202260FBA60-620073        100442000218000210000013000029000008000000020260119FBA60B32S00G    5 022S3121250292077FBA60      620073               
D20260202260FBA60-620451        100442000284000210000013000029000008000000020260129FBA60B21S00G    5 022S3121250346660FBA60      620451               
D20260202260FBA60-620685        100442000218000210000013000029000008000000020260129FBA60B32S00G    5 022S3121260013343FBA60      620685               
D20260202260FEAVK-612902        100442000218000210000013000029000008000000020260107FEAVKB2CS00F    4 021S3121250308138FEAVK      612902               
D20260202260FEAVK-612906        100442000218000210000013000029000008000000020260107FEAVKB2CS00F    4 021S3121250310207FEAVK      612906               
D20260202260FEAVK-612910        100442000218000210000013000029000008000000020260107FEAVKB2CS00F    4 021S3121250310223FEAVK      612910               
D20260202260FEAVK-612912        100442000218000210000013000029000008000000020260107FEAVKB2CS00F    4 021S3121250310890FEAVK      612912               
D20260202260FEAVK-612916        100442000218000210000013000029000008000000020260107FEAVKB2CS00F    4 021S3121250310252FEAVK      612916               
D20260202260FEAVK-612980        100442000218000210000013000029000008000000020260107FEAVKB2CS00F    4 021S3121250321054FEAVK      612980               
D20260202260FEAV0-612311        100442000284000210000013000029000008000000020260113FEAV0B33SG0G    4 641S3121250192986FEAV0      612311               
D20260202260FEAV0-612312        100442000284000210000013000029000008000000020260113FEAV0B33SG0G    4 641S3121250193761FEAV0      612312               
D20260202260FEAV0-612321        100442000284000210000013000029000008000000020260113FEAV0B33SG0G    4 641S3121250195581FEAV0      612321               
D20260202260FEAV0-612332        100442000284000210000013000029000008000000020260113FEAV0B33SG0G    4 641S3121250199756FEAV0      612332               
D20260202260FEAV0-612365        100442000284000210000013000029000008000000020260113FEAV0B33SG0G    4 641S3121250204726FEAV0      612365               
D20260202260FEAV0-620083        100442000218000210000013000029000008000000020260129FEAV0B24SU0G    5 643S3121250292181FEAV0      620083               
D20260202260FEAV0-620419        100442000284000210000013000029000008000000020260108FEAV0C31S00G    5 022S3121250351448FEAV0      620419               
D20260202260FEA20-620142        100442000218000210000013000029000008000000020260127FEA20C21S00F    5 021S3121250365425FEA20      620142               
D20260202260FEBS0-620015        100442000218000210000013000029000008000000020260129FEBS0G73S00G    5 021S3121250302071FEBS0      620015               
D20260202260FEBS0-620016        100442000218000210000013000029000008000000020260121FEBS0G71S00H    5 012S3121250302853FEBS0      620016               
D20260202260FEB50-611013        100442000284000210000013000029000008000000020260113FEB50E33S00G    4 022S3121250019553FEB50      611013               
D20260202260FEB50-620242        100442000218000210000013000029000008000000020260130FEB50E21S00G    5 021S3121250336962FEB50      620242               
D20260202260FEB50-620433        100442000218000210000013000029000008000000020260130FEB50C33S00G    5 021S3121260008578FEB50      620433               
D20260202260FEB50-620492        100442000218000210000013000029000008000000020260129FEB50E22S00G    5 012S3121260022442FEB50      620492               
D20260202260FEB80-612017        100442000218000210000013000029000008000000020260106FEB80G41S00H    4 012S3121250172900FEB80      612017               
D20260202260FEB80-612413        100442000218000210000013000029000008000000020260129FEB80C43S00G    4 641S3121250248012FEB80      612413               
D20260202260FEB80-620181        100442000218000210000013000029000008000000020260128FEB80G31S00G    5 012S3121250321328FEB80      620181               
D20260202260FEB80-620293        100442000218000210000013000029000008000000020260123FEB80E33S00G    5 632S3121250338636FEB80      620293               
D20260202260FEB80-620308        100442000218000210000013000029000008000000020260130FEB80G41S00H    5 012S3121250340718FEB80      620308               
D20260202260FEB80-620319        100442000218000210000013000029000008000000020260129FEB80E42S00G    5 021S3121250341274FEB80      620319               
D20260202260FEB80-620322        100442000218000210000013000029000008000000020260130FEB80G41S00G    5 021S3121250341304FEB80      620322               
D20260202260FEB80-620337        100442000218000210000013000029000008000000020260128FEB80E33S00G    5 632S3121250343010FEB80      620337               
D20260202260FECS0-620004        100442000218000210000013000029000008000000020260129FECS0K73S00H    5 012S3121260003182FECS0      620004               
D20260202260FEC90-620011        100442000218000210000013000029000008000000020260129FEC90K73S00H    5 012S3121250346846FEC90      620011               
D20260202260FGA50-620024        100442000218000210000013000029000008000000020260128FGA50E21SK0G    5 021S3121250342307FGA50      620024               
D20260202360FBA00-620126        100442000218000210000013000029000008000000020260121FBA00B11W00E    5 012S3121250347836FBA00      620126               
D20260202320MP35FM-10047        103889000000000807000013000029000008000000020260108MP35FMFW        8 013B1121250360925MP35FM      10047               
D20260202320MP35FM-10048        103889000000000807000013000029000008000000020260108MP35FMFW        8 013B1121250360938MP35FM      10048               
D20260202320MP35FM-10049        103889000000000807000013000029000008000000020260108MP35FMFW        8 013B1121250356300MP35FM      10049               
D20260202320MP38FK-10489        103889000000000807000013000029000008000000020260108MP38FKFW        8 013B1121250356313MP38FK      10489               
D20260202320MP38FK-10490        103889000000000807000013000029000008000000020260108MP38FKFW        8 013B1121250356326MP38FK      10490               
D20260202320MP38FK-10491        103889000000000807000013000029000008000000020260108MP38FKFW        8 013B1121250356339MP38FK      10491               
D20260202320MP38FM-10082        103889000000000807000013000029000008000000020260108MP38FMFSW       8 013B1121250361090MP38FM      10082               
D20260202330BG740G-450055       101684000284000462000013000029000008000000020260123BG740GBAH       6 012B1121250289022BG740G     450055               
D20260202330BG740G-450125       101684000284000462000013000029000008000000020260123BG740GBAH       6 012B1121260007780BG740G     450125               
