D20260202220FP84HD-505130       100907000218000210000013000029000008000000020260109FP84HDR3XKB     2 027L3121250282151FP84HD     505130               
D20260202220FP84VD-505580       100907000218000210000013000029000008000000020260109FP84VDR3XKTB    2 027L3121260005508FP84VD     505580               
D20260202220FS85VZ-505111       100907000218000210000013000029000008000000020260106FS85VVZ1TB      2 021L3121250339192FS85VZ     505111               
D20260202220FU84HZ-505111       100907000218000210000013000029000008000000020260113FU84HUZ2B       2 632L3121250279207FU84HZ     505111               
D20260202220FU85HZ-505040       100907000218000210000013000029000008000000020260123FU85HUZ3TB      2 632L3121260014405FU85HZ     505040               
D20260202220FV80GX-505005       100907000218000210000013000029000008000000020260108FV80GJXM2B      2 555L3121250150016FV80GX     505005               
D20260202220FV80GX-505011       100907000218000210000013000029000008000000020260108FV80GJXM2B      2 555L3121250155659FV80GX     505011               
D20260202220FV80GX-505078       100907000218000210000013000029000008000000020260121FV80GJXM2B      2 555L3121250281288FV80GX     505078               
D20260202220FV80GX-505080       100907000218000210000013000029000008000000020260121FV80GJXM2B      2 555L3121250292934FV80GX     505080               
D20260202220FV80HX-505028       100907000218000210000013000029000008000000020260113FV80HJXD2B      2 022L3121250196773FV80HX     505028               
D20260202220FV80HX-505060       100907000218000210000013000029000008000000020260106FV80HJXD2B      2 022L3121250251706FV80HX     505060               
D20260202220FV80HX-505068       100907000218000210000013000029000008000000020260106FV80HJXD2B      2 022L3121250260586FV80HX     505068               
D20260202220FV80HY-500065       100907000218000210000013000029000008000000020260120FV80HMYD3B      1 012L3121250049338FV80HY     500065               
D20260202240FK62F-621507        100650000218000210000013000029000008000000020260121FK62FJ6         9 012M3121250259768FK62F      621507               
D20260202240FK65F-622197        100650000218000210000013000029000008000000020260122FK65FK5         9 021M3121250328996FK65F      622197               
D20260202260FBAV0-620230        100442000284000210000013000029000008000000020260120FBAV0B21S00G    5 632S3121250345928FBAV0      620230               
D20260202260FBAV0-620250        100442000218000210000013000029000008000000020260105FBAV0B31S00G    5 012S3121250350201FBAV0      620250               
D20260202260FBAV0-620264        100442000218000210000013000029000008000000020260106FBAV0B31S00G    5 012S3121250352324FBAV0      620264               
D20260202260FBAV0-620397        100442000218000210000013000029000008000000020260126FBAV0B31S00G    5 012S3121260006745FBAV0      620397               
D20260202260FBAV0-620398        100442000218000210000013000029000008000000020260126FBAV0B31S00G    5 012S3121260008422FBAV0      620398               
D20260202260FBAV0-620424        100442000218000210000013000029000008000000020260127FBAV0B31S00G    5 012S3121260013864FBAV0      620424               
D20260202260FBAV0-620476        100442000218000210000013000029000008000000020260126FBAV0B31S00G    5 012S3121260026981FBAV0      620476               
D20260202260FBA20-613418        100442000218000210000013000029000008000000020260120FBA20B21S00F    4 021S3121250259494FBA20      613418               
D20260202260FBA20-620715        100442000218000210000013000029000008000000020260120FBA20B22W00F    5 012S3121250363083FBA20      620715               
D20260202260FBA20-620885        100442000218000210000013000029000008000000020260120FBA20B21W00F    5 012S3121260013893FBA20      620885               
D20260202260FBA20-620990        100442000218000210000013000029000008000000020260128FBA20B22S00F    5 012S3121260026415FBA20      620990               
D20260202260FBA30-620069        100442000218000210000013000029000008000000020260123FBA30B21S00G    5 022S3121260016717FBA30      620069               
D20260202260FBA30-620071        100442000218000210000013000029000008000000020260123FBA30B21S00G    5 022S3121260016720FBA30      620071               
D20260202260FBA30-620073        100442000218000210000013000029000008000000020260123FBA30B21S00G    5 022S3121260016733FBA30      620073               
D20260202260FBA30-620074        100442000218000210000013000029000008000000020260130FBA30B21S00G    5 022S3121260031886FBA30      620074               
D20260202260FBA30-620078        100442000218000210000013000029000008000000020260130FBA30B21S00G    5 022S3121260031899FBA30      620078               
D20260202260FBA60-620358        100442000218000210000013000029000008000000020260113FBA60B32S00G    5 022S3121250326105FBA60      620358               
D20260202260FBA60-620407        100442000218000210000013000029000008000000020260108FBA60B34S00G    5 022S3121250334302FBA60      620407               
D20260202260FDA20-620052        100442000218000210000013000029000008000000020260121FDA20B21S00F    5 012S3121260004521FDA20      620052               
D20260202260FDA20-620069        100442000218000210000013000029000008000000020260123FDA20B21S00F    5 012S3121260025744FDA20      620069               
D20260202260FEAVK-612927        100442000218000210000013000029000008000000020260105FEAVKB2CS00F    4 021S3121250312128FEAVK      612927               
D20260202260FEAVK-612944        100442000218000210000013000029000008000000020260105FEAVKB2CS00F    4 021S3121250313899FEAVK      612944               
D20260202260FEAV0-612480        100442000218000210000013000029000008000000020260126FEAV0B34SK0G    4 643S3121250245550FEAV0      612480               
D20260202260FEAV0-620064        100442000218000210000013000029000008000000020260108FEAV0B33SK0G    5 513S3121250306637FEAV0      620064               
D20260202260FEAV0-620073        100442000284000210000013000029000008000000020260106FEAV0B23SGUG    5 641S3121250290156FEAV0      620073               
D20260202260FEAV0-620455        100442000218000210000013000029000008000000020260109FEAV0B21SU0G    5 012S3121250356573FEAV0      620455               
D20260202260FEAV0-620611        100442000218000210000013000029000008000000020260120FEAV0E21S00G    5 021S3121260013952FEAV0      620611               
D20260202260FEA80-620071        100442000218000210000013000029000008000000020260116FEA80E63S00G    5 012S3121260011608FEA80      620071               
D20260202260FEA80-620076        100442000218000210000013000029000008000000020260115FEA80E63S00G    5 012S3121260012278FEA80      620076               
D20260202260FEBM0-610449        100442000218000210000013000029000008000000020260113FEBM0C63S00H    4 022S3121250275566FEBM0      610449               
D20260202260FEBM0-620057        100442000218000210000013000029000008000000020260109FEBM0C64S00H    5 022S3121250355916FEBM0      620057               
D20260202260FEB50-620139        100442000218000210000013000029000008000000020260123FEB50E21S00G    5 012S3121250314485FEB50      620139               
D20260202260FEB50-620197        100442000218000210000013000029000008000000020260106FEB50E22S00G    5 021S3121250326671FEB50      620197               
D20260202260FEB50-620299        100442000218000210000013000029000008000000020260126FEB50G21S00G    5 012S3121250349164FEB50      620299               
D20260202260FEB80-620097        100442000218000210000013000029000008000000020260106FEB80G41S00G    5 012S3121250300570FEB80      620097               
D20260202260FEB80-620653        100442000218000210000013000029000008000000020260113FEB80E31S00G    5 012S3121260008129FEB80      620653               
D20260202260FEB80-620751        100442000218000210000013000029000008000000020260128FEB80E42S00G    5 012S3121260019673FEB80      620751               
D20260202260FEB90-611691        100442000218000210000013000029000008000000020260105FEB90E74S00H    4 012S3121250245707FEB90      611691               
D20260202260FEB90-620068        100442000284000210000013000029000008000000020260106FEB90C73SG0H    5 641S3121250296200FEB90      620068               
D20260202260FEB90-620160        100442000218000210000013000029000008000000020260109FEB90C74SGMH    5 641S3121250311372FEB90      620160               
D20260202260FEB90-620381        100442000218000210000013000029000008000000020260121FEB90C71S00H    5 012S3121250353343FEB90      620381               
D20260202320MS06GP-20016        105409000218000807000013000029000008000000020260109MS06GPQGUCV     9 013B1121250356469MS06GP      20016               
D20260202320MS06GP-20028        105409000218000807000013000029000008000000020260120MS06GPHZMCV     9 013B1121250362875MS06GP      20028               
D20260202320MS06GP-20044        103889000218000807000013000029000008000000020260126MS06GPHLMCV     9 013B1121260000864MS06GP      20044               
D20260202320MS06GP-20045        103889000218000807000013000029000008000000020260126MS06GPHLMCV     9 013B1121250369889MS06GP      20045               
D20260202330BE740E-450041       101684000284000462000013000029000008000000020260105BE740EBAJH      6 012B1121250259377BE740E     450041               
D20260202330BE740E-450083       101684000284000462000013000029000008000000020260120BE740EAAH       6 012B1121250362237BE740E     450083               
D20260202330BE740E-450084       101684000284000462000013000029000008000000020260120BE740EAAH       6 012B1121250362240BE740E     450084               
D20260202330BE740G-450145       101684000218000462000013000029000008000000020260105BE740GBAGH      6 030B1121250233986BE740G     450145               
D20260202330BE740G-450146       101684000218000462000013000029000008000000020260105BE740GBAGH      6 012B1121250233999BE740G     450146               
D20260202330BE740G-450374       101684000284000462000013000029000008000000020260120BE740GAAH       6 012B1121250362279BE740G     450374               
D20260202330BE740G-450375       101684000284000462000013000029000008000000020260120BE740GAAH       6 012B1121250367870BE740G     450375               
D20260202330BE740G-450376       101684000284000462000013000029000008000000020260113BE740GAAH       6 012B1121250362282BE740G     450376               
D20260202330BE740G-450377       101684000284000462000013000029000008000000020260113BE740GAAH       6 012B1121250360619BE740G     450377               
D20260202330BE740G-450378       101684000284000462000013000029000008000000020260120BE740GAAH       6 012B1121250362295BE740G     450378               
D20260202330BE740J-450036       101684000218000462000013000029000008000000020260106BE740JBAJGH     6 012B1121250252060BE740J     450036               
D20260202330BE740J-450092       101684000284000462000013000029000008000000020260127BE740JAAH       6 012B1121260005582BE740J     450092               
D20260202330BE740J-450093       101684000284000462000013000029000008000000020260127BE740JAAH       6 012B1121260005595BE740J     450093               
D20260202330BG740G-450056       101684000284000462000013000029000008000000020260115BG740GBAH       6 012B1121250289035BG740G     450056               
