D20260105220FP84VE-505068       100907000218000210000013000029000008000000020251204FP84VER3K5E     2 027L3121250185359FP84VE     505068               
D20260105240FK62F-621327        100650000218000210000013000029000008000000020251219FK62FE4         9 513M3121250207161FK62F      621327               
D20260105240FK72F-621445        100650000218000210000013000029000008000000020251217FK72FD4         9 641M3121250183656FK72F      621445               
D20260105260FBAV0-620169        100442000218000210000013000029000008000000020251211FBAV0B21S00G    5 012S3121250332380FBAV0      620169               
D20260105260FBA20-620019        100442000218000210000013000029000008000000020251201FBA20B21S00F    5 632S3121250300147FBA20      620019               
D20260105260FBA20-620234        100442000218000210000013000029000008000000020251205FBA20B22S00F    5 632S3121250309450FBA20      620234               
D20260105260FBA30-610094        100442000218000210000013000029000008000000020251215FBA30B21S00G    4 022S3121240194644FBA30      610094               
D20260105260FBA30-610095        100442000218000210000013000029000008000000020251215FBA30B21S00G    4 022S3121240194657FBA30      610095               
D20260105260FBA30-620051        100442000218000210000013000029000008000000020251217FBA30B21S00G    5 022S3121250339482FBA30      620051               
D20260105260FBA30-620054        100442000218000210000013000029000008000000020251219FBA30B21S00G    5 022S3121250343948FBA30      620054               
D20260105260FBA60-610686        100442000218000210000013000029000008000000020251215FBA60B32S00G    4 022S3121240232632FBA60      610686               
D20260105260FEA20-620005        100442000218000210000013000029000008000000020251201FEA20C21S00F    5 632S3121250300365FEA20      620005               
D20260105260FEA20-620009        100442000218000210000013000029000008000000020251205FEA20C21S00F    5 632S3121250300378FEA20      620009               
D20260105260FEA20-620012        100442000218000210000013000029000008000000020251205FEA20C21S00F    5 632S3121250303205FEA20      620012               
D20260105260FEB20-620015        100442000218000210000013000029000008000000020251219FEB20E21S00F    5 012S3121250348002FEB20      620015               
D20260105260FEB20-620017        100442000218000210000013000029000008000000020251218FEB20E21S00F    5 012S3121250347634FEB20      620017               
D20260105260FEB50-620121        100442000218000210000013000029000008000000020251205FEB50E32S00G    5 632S3121250304019FEB50      620121               
D20260105260FEB50-620138        100442000218000210000013000029000008000000020251205FEB50E32S00G    5 632S3121250307728FEB50      620138               
D20260105260FEB50-620228        100442000218000210000013000029000008000000020251223FEB50E32S00G    5 632S3121250335015FEB50      620228               
D20260105260FEB50-620271        100442000218000210000013000029000008000000020251219FEB50E31S00G    5 012S3121250342958FEB50      620271               
D20260105330BE740G-450315       101684000284000462000013000029000008000000020251208BE740GAAH       6 012B1121250314267BE740G     450315               
D20260105330BE740J-450069       101684000284000462000013000029000008000000020251224BE740JBAH       6 012B1121250357824BE740J     450069               
D20260105330BE740J-450070       101684000284000462000013000029000008000000020251224BE740JBAH       6 012B1121250352236BE740J     450070               
D20260105330BE740J-450071       101684000284000462000013000029000008000000020251224BE740JBAH       6 012B1121250355639BE740J     450071               
D20260105330BE740J-450072       101684000284000462000013000029000008000000020251224BE740JBAH       6 012B1121250352249BE740J     450072               
D20260105330BE740J-450073       101684000284000462000013000029000008000000020251224BE740JBAH       6 012B1121250354072BE740J     450073               
D20260105330BE740J-450074       101684000284000462000013000029000008000000020251224BE740JBAH       6 012B1121250362367BE740J     450074               
D20260105330BE740J-450075       101684000284000462000013000029000008000000020251224BE740JBAH       6 012B1121250355642BE740J     450075               
