D20260105220FU84VZ-505066       100907000218000210000013000029000008000000020251202FU84VUZ1TB      2 632L3121250241763FU84VZ     505066               
D20260105220FU84VZ-505067       100907000218000210000013000029000008000000020251202FU84VUZ1TB      2 632L3121250243903FU84VZ     505067               
D20260105220FU84VZ-505073       100907000218000210000013000029000008000000020251202FU84VUZ1TB      2 632L3121250247745FU84VZ     505073               
D20260105220FU84VZ-505074       100907000218000210000013000029000008000000020251202FU84VUZ1TB      2 632L3121250247875FU84VZ     505074               
D20260105240FK72F-621529        100650000218000210000013000029000008000000020251201FK72FF4         9 641M3121250200564FK72F      621529               
D20260105260FBA30-620033        100442000218000210000013000029000008000000020251216FBA30B21S00G    5 012S3121250324851FBA30      620033               
D20260105260FBA30-620036        100442000218000210000013000029000008000000020251216FBA30B21S00G    5 012S3121250333787FBA30      620036               
D20260105260FEBM0-620027        100442000218000210000013000029000008000000020251209FEBM0C63S00H    5 022S3121250316380FEBM0      620027               
D20260105260FEB50-620009        100442000218000210000013000029000008000000020251201FEB50G22S00G    5 012S3121250301661FEB50      620009               
D20260105260FEB50-620041        100442000218000210000013000029000008000000020251216FEB50E21W00G    5 012S3121250288508FEB50      620041               
D20260105260FEB50-620094        100442000218000210000013000029000008000000020251201FEB50E21W00G    5 012S3121250296880FEB50      620094               
D20260105260FGA20-620026        100442000218000210000013000029000008000000020251201FGA20E21W00F    5 012S3121250328303FGA20      620026               
D20260105260FGA50-610142        100442000218000210000013000029000008000000020251201FGA50C31SK0G    4 513S3121250159130FGA50      610142               
D20260105360FDA00-610344        100442000218000210000013000029000008000000020251203FDA00B11S00E    4 012S3121250214600FDA00      610344               
D20260105330BE740G-450190       101684000284000462000013000029000008000000020251201BE740GBAH       6 012B1121250253513BE740G     450190               
D20260105330BG740G-450048       101684000284000462000013000029000008000000020251201BG740GBAJH      6 012B1121250279308BG740G     450048               
