D20260105220FS84HZ-505087       100907000218000210000013000029000008000000020251224FS84HVZ2C       2 632L3121250184242FS84HZ     505087               
D20260105220FS84VZ-501684       100907000218000210000013000029000008000000020251219FS84VVZ1TB      1 021L3121250108318FS84VZ     501684               
D20260105220FU84HY-505008       100907000218000210000013000029000008000000020251205FU84HNY2B       2 513L3121250197763FU84HY     505008               
D20260105220FV80VJ-505101       100907000218000210000013000029000008000000020251201FV80VJR5XKC     2 027L3121250290589FV80VJ     505101               
D20260105220FV80VJ-505105       100907000218000210000013000029000008000000020251201FV80VJR5XKC     2 027L3121250291827FV80VJ     505105               
D20260105240FK72F-621550        100650000218000210000013000029000008000000020251205FK72FF4         9 641M3121250204364FK72F      621550               
D20260105260FBAV0-611132        100442000218000210000013000029000008000000020251215FBAV0B34S00G    4 151S3121250238301FBAV0      611132               
D20260105260FBA20-620147        100442000218000210000013000029000008000000020251215FBA20B21W00F    5 012S3121250297740FBA20      620147               
D20260105260FBA20-620283        100442000218000210000013000029000008000000020251205FBA20B21S00F    5 012S3121250316250FBA20      620283               
D20260105260FBA30-620008        100442000218000210000013000029000008000000020251219FBA30B21S00G    5 022S3121250290303FBA30      620008               
D20260105260FEAVK-612730        100442000218000210000013000029000008000000020251205FEAVKB2CS00F    4 021S3121250279379FEAVK      612730               
D20260105260FEAVK-612735        100442000218000210000013000029000008000000020251205FEAVKB2CS00F    4 021S3121250281028FEAVK      612735               
D20260105260FEAVK-612758        100442000218000210000013000029000008000000020251205FEAVKB2CS00F    4 021S3121250281897FEAVK      612758               
D20260105260FEAVK-612761        100442000218000210000013000029000008000000020251205FEAVKB2CS00F    4 021S3121250282382FEAVK      612761               
D20260105260FEAVK-612769        100442000218000210000013000029000008000000020251205FEAVKB2CS00F    4 021S3121250284274FEAVK      612769               
D20260105260FEAVK-612835        100442000218000210000013000029000008000000020251205FEAVKB2CS00F    4 021S3121250293520FEAVK      612835               
D20260105260FEAVK-612846        100442000218000210000013000029000008000000020251205FEAVKB2CS00F    4 021S3121250295656FEAVK      612846               
D20260105260FEAVK-612854        100442000218000210000013000029000008000000020251205FEAVKB2CS00F    4 021S3121250299557FEAVK      612854               
D20260105260FEAV0-612262        200442000218000210000013000029000008000000020251201FEAV0B34SK0G    4 643S3121250180312FEAV0      612262               
D20260105260FEAV0-612482        100442000218000210000013000029000008000000020251226FEAV0B34SK0G    4 643S3121250245651FEAV0      612482               
D20260105260FEB50-611319        100442000218000210000013000029000008000000020251209FEB50G32S0MG    4 012S3121250079070FEB50      611319               
D20260105260FEB50-611609        100442000218000210000013000029000008000000020251206FEB50G22S00G    4 012S3121250137800FEB50      611609               
D20260105260FEB50-620168        100442000218000210000013000029000008000000020251215FEB50G24S00G    5 021S3121250317598FEB50      620168               
D20260105260FEC90-620004        100442000218000210000013000029000008000000020251222FEC90K74S00H    5 012S3121250317266FEC90      620004               
D20260105360FBA00-620062        100442000284000210000013000029000008000000020251206FBA00B12S00F    5 012S3121250304921FBA00      620062               
D20260105360FBA00-620115        100442000218000210000013000029000008000000020251226FBA00B11S00E    5 012S3121250343847FBA00      620115               
D20260105360FBA00-620120        100442000218000210000013000029000008000000020251217FBA00B12S00F    5 012S3121250347171FBA00      620120               
D20260105320MS06GP-15748        105409000218000807000013000029000008000000020251210MS06GPQGUCV     8 013B1121250333745MS06GP      15748               
