D20260202220FS80VZ-500057       100907000218000210000013000029000008000000020260115FS80VTZK1B      1 012L3121250000890FS80VZ     500057               
D20260202220FV80GX-505064       100907000218000210000013000029000008000000020260105FV80GJXM2B      2 555L3121250249523FV80GX     505064               
D20260202220FV80GX-505066       100907000218000210000013000029000008000000020260106FV80GJXM2B      2 555L3121250251038FV80GX     505066               
D20260202220FV80GX-505067       100907000218000210000013000029000008000000020260106FV80GJXM2B      2 555L3121250255173FV80GX     505067               
D20260202220FV80VJ-505141       100907000218000210000013000029000008000000020260105FV80VJR5XKB     2 027L3121250328534FV80VJ     505141               
D20260202220FV84HZ-500035       100907000218000210000013000029000008000000020260105FV84HUZ2B       1 012L3121250028157FV84HZ     500035               
D20260202240FK62F-621518        100650000218000210000013000029000008000000020260120FK62FE4         9 513M3121250259797FK62F      621518               
D20260202240FK72F-621972        100650000218000210000013000029000008000000020260119FK72FE4         9 022M3121250298570FK72F      621972               
D20260202240FK72N-620448        100650000218000210000013000029000008000000020260109FK72NHE         9 021M3121250318911FK72N      620448               
D20260202260FDA20-610341        100442000218000210000013000029000008000000020260126FDA20B21S00F    4 513S3121250045121FDA20      610341               
D20260202260FEAV0-612115        100442000218000210000013000029000008000000020260114FEAV0E32S00G    4 012S3121250142402FEAV0      612115               
D20260202260FEAV0-612486        100442000218000210000013000029000008000000020260119FEAV0E24SK0G    4 012S3121250246566FEAV0      612486               
D20260202360FDA00-620021        100442000218000210000013000029000008000000020260105FDA00B11W00E    5 012S3121250315941FDA00      620021               
D20260202360FDA00-620029        100442000218000210000013000029000008000000020260113FDA00B11S00E    5 021S3121250332191FDA00      620029               
D20260202360FDA00-620030        100442000218000210000013000029000008000000020260113FDA00B11S00E    5 021S3121250333400FDA00      620030               
D20260202360FDA00-620032        100442000218000210000013000029000008000000020260115FDA00B11S00E    5 632S3121250333950FDA00      620032               
D20260202360FDA00-620034        100442000218000210000013000029000008000000020260113FDA00B11S00E    5 021S3121250335927FDA00      620034               
D20260202360FDA00-620035        100442000218000210000013000029000008000000020260116FDA00B11S00E    5 021S3121250335930FDA00      620035               
D20260202360FDA00-620036        100442000218000210000013000029000008000000020260116FDA00B11S00E    5 021S3121250337633FDA00      620036               
D20260202360FDA00-620037        100442000218000210000013000029000008000000020260119FDA00B11S00E    5 021S3121250340402FDA00      620037               
D20260202360FDA00-620038        100442000218000210000013000029000008000000020260116FDA00B11S00E    5 021S3121250342642FDA00      620038               
D20260202360FDA00-620040        100442000218000210000013000029000008000000020260109FDA00B11S00E    5 012S3121250344521FDA00      620040               
D20260202360FDA00-620041        100442000218000210000013000029000008000000020260119FDA00B11S00E    5 021S3121250345364FDA00      620041               
D20260202320MS06GP-20027        103889000218000807000013000029000008000000020260123MS06GPHZMBV     9 013B1121250358957MS06GP      20027               
