D20260105220FS84HZ-500757       100907000218000210000013000029000008000000020251208FS84HVZ2B       1 021L3121250086870FS84HZ     500757               
D20260105220FS84VZ-501483       100907000218000210000013000029000008000000020251208FS84VVZ1TB      1 021L3121250088081FS84VZ     501483               
D20260105220FS85VZ-500109       100907000218000210000013000029000008000000020251215FS85VWZ1B       1 012L3121240298607FS85VZ     500109               
D20260105220FV80HX-500046       100907000218000210000013000029000008000000020251225FV80HJXD2B      1 022L3121240250319FV80HX     500046               
D20260105220FV80HX-500109       100907000218000210000013000029000008000000020251217FV80HJXD2B      1 022L3121250009813FV80HX     500109               
D20260105220FV80VY-500083       100907000218000210000013000029000008000000020251201FV80VPYP4XTC    1 012L3121240284079FV80VY     500083               
D20260105220FV80VZ-500031       100907000218000210000013000029000008000000020251225FV80VTZP4XTC    1 030L3121240273639FV80VZ     500031               
D20260105240FK62F-620673        100650000218000210000013000029000008000000020251204FK62FD4D        9 022M3121240309095FK62F      620673               
D20260105240FK62F-621306        100650000218000210000013000029000008000000020251209FK62FJ4E        9 021M3121250197398FK62F      621306               
D20260105240FK65F-621016        100650000218000210000013000029000008000000020251217FK65FK4E        9 021M3121250043402FK65F      621016               
D20260105240FK72F-621011        100650000218000210000013000029000008000000020251211FK72FK4         9 021M3121250062007FK72F      621011               
D20260105240FK72F-621171        100650000218000210000013000029000008000000020251211FK72FK4         9 021M3121250120840FK72F      621171               
D20260105240FK75F-620161        100650000218000210000013000029000008000000020251201FK75FJ4         9 632M3121250093999FK75F      620161               
D20260105260FBAV0-611139        100442000218000210000013000029000008000000020251222FBAV0B32S0MG    4 022S3121250241949FBAV0      611139               
D20260105260FBA20-610066        100442000218000210000013000029000008000000020251209FBA20B22S00F    4 012S3121240168148FBA20      610066               
D20260105260FBA20-611384        100442000218000210000013000029000008000000020251204FBA20B22S00F    4 012S3121240314987FBA20      611384               
D20260105260FBA20-620196        100442000218000210000013000029000008000000020251216FBA20B22S00F    5 632S3121250304963FBA20      620196               
D20260105260FBA60-605271        100442000218000210000013000029000008000000020251206FBA60B32S00L    3 022S3121240118824FBA60      605271               
D20260105260FBA60-611404        100442000218000210000013000029000008000000020251209FBA60B32S00G    4 022S3121250003613FBA60      611404               
D20260105260FBA60-613091        100442000218000210000013000029000008000000020251218FBA60B32SD0G    4 022S3121250242971FBA60      613091               
D20260105260FDA20-610456        100442000218000210000013000029000008000000020251218FDA20B21S00F    4 012S3121250269453FDA20      610456               
D20260105260FDA60-610120        100442000218000210000013000029000008000000020251209FDA60B31S00G    4 022S3121250173264FDA60      610120               
D20260105260FDA60-610150        100442000218000210000013000029000008000000020251206FDA60B31S00G    4 022S3121250262885FDA60      610150               
D20260105260FDA60-620011        100442000218000210000013000029000008000000020251206FDA60B21S00G    5 022S3121250301313FDA60      620011               
D20260105260FEAV0-612474        100442000218000210000013000029000008000000020251201FEAV0E22SK0G    4 012S3121250243671FEAV0      612474               
D20260105260FEAV0-612483        100442000218000210000013000029000008000000020251201FEAV0E22SK0G    4 012S3121250245664FEAV0      612483               
D20260105260FEAV0-620118        100442000218000210000013000029000008000000020251217FEAV0B22SU0G    5 021S3121250300336FEAV0      620118               
D20260105260FEB20-610060        100442000218000210000013000029000008000000020251204FEB20E21S00F    4 012S3121240245557FEB20      610060               
D20260105260FEB50-603191        100442000218000210000013000029000008000000020251204FEB50E34S00L    3 021S3121240067852FEB50      603191               
D20260105260FEB50-610281        100442000218000210000013000029000008000000020251204FEB50E21S00G    4 021S3121240191834FEB50      610281               
D20260105260FEB50-610586        100442000218000210000013000029000008000000020251208FEB50G33S00G    4 021S3121240259013FEB50      610586               
D20260105260FEB90-610598        100442000218000210000013000029000008000000020251225FEB90C73SG0H    4 641S3121240313636FEB90      610598               
D20260105260FEB90-611236        100442000218000210000013000029000008000000020251215FEB90G72S00H    4 012S3121250130014FEB90      611236               
D20260105260FEB90-620083        100442000218000210000013000029000008000000020251218FEB90G72S00H    5 012S3121250297971FEB90      620083               
D20260105260FED90-610275        100442000218000210000013000029000008000000020251206FED90K74S00H    4 632S3121250185290FED90      610275               
D20260105260FED90-610276        100442000218000210000013000029000008000000020251206FED90K74S00H    4 632S3121250186437FED90      610276               
D20260105260FED90-610311        100442000218000210000013000029000008000000020251203FED90K73S00H    4 012S3121250251373FED90      610311               
D20260105260FED90-610312        100442000218000210000013000029000008000000020251203FED90K73S00H    4 012S3121250252389FED90      610312               
D20260105360FDA00-610364        100442000218000210000013000029000008000000020251201FDA00B11S00E    4 012S3121250247963FDA00      610364               
D20260105360FDA00-610368        100442000218000210000013000029000008000000020251216FDA00B11W00E    4 012S3121250251461FDA00      610368               
D20260105360FDA00-610370        100442000218000210000013000029000008000000020251206FDA00B11W00E    4 012S3121250253597FDA00      610370               
D20260105360FDA00-620007        100442000218000210000013000029000008000000020251209FDA00B11S00E    5 012S3121250282874FDA00      620007               
D20260105360FDA00-620031        100442000218000210000013000029000008000000020251215FDA00B11S00E    5 012S3121250333947FDA00      620031               
D20260105330BE740G-450114       101684000284000462000013000029000008000000020251206BE740GBAH       6 012B1121250221556BE740G     450114               
