D20260202260FBA20-620490        100442000218000210000013000029000008000000020260126FBA20B22S00F    5 632S3121250336890FBA20      620490               
D20260202260FBA20-620508        100442000218000210000013000029000008000000020260109FBA20B21S00F    5 632S3121250340141FBA20      620508               
D20260202260FBA20-620603        100442000218000210000013000029000008000000020260123FBA20B21S00F    5 632S3121250349089FBA20      620603               
D20260202260FBA30-620085        100442000218000210000013000029000008000000020260113FBA30B21S00G    5 022S3121250369717FBA30      620085               
D20260202260FEAV0-620224        100442000218000210000013000029000008000000020260123FEAV0E21S00G    5 021S3121250322581FEAV0      620224               
D20260202260FEA20-620139        100442000218000210000013000029000008000000020260123FEA20C21S00F    5 632S3121250362585FEA20      620139               
D20260202260FEA20-620148        100442000218000210000013000029000008000000020260131FEA20C21S00F    5 632S3121250368974FEA20      620148               
D20260202260FEA20-620149        100442000218000210000013000029000008000000020260131FEA20C21S00F    5 632S3121250369225FEA20      620149               
D20260202260FEB20-620016        100442000218000210000013000029000008000000020260109FEB20E21S00F    5 012S3121250350751FEB20      620016               
D20260202260FEB20-620024        100442000284000210000013000029000008000000020260109FEB20E21S00F    5 012S3121250350780FEB20      620024               
D20260202260FEB20-620025        100442000218000210000013000029000008000000020260109FEB20E21S00F    5 012S3121250350793FEB20      620025               
D20260202260FEB20-620033        100442000218000210000013000029000008000000020260126FEB20E21S00F    5 012S3121260017879FEB20      620033               
D20260202260FEB50-620058        100442000218000210000013000029000008000000020260109FEB50G21S00G    5 021S3121250311170FEB50      620058               
D20260202260FEB50-620160        100442000218000210000013000029000008000000020260109FEB50C21S00G    5 021S3121250314993FEB50      620160               
D20260202260FEB50-620264        100442000218000210000013000029000008000000020260123FEB50E21S00G    5 012S3121250341245FEB50      620264               
D20260202260FEB8K-610129        100442000218000210000013000029000008000000020260115FEB8KG6DS00G    4 021S3121250280533FEB8K      610129               
D20260202260FEB8K-610130        100442000218000210000013000029000008000000020260113FEB8KG6DS00G    4 021S3121250280184FEB8K      610130               
D20260202260FEB8K-610133        100442000218000210000013000029000008000000020260122FEB8KG6DS00G    4 021S3121250292253FEB8K      610133               
D20260202260FEB8K-610135        100442000218000210000013000029000008000000020260122FEB8KG6DS00G    4 021S3121250296138FEB8K      610135               
D20260202260FEB8K-610136        100442000218000210000013000029000008000000020260122FEB8KG6DS00G    4 021S3121250301052FEB8K      610136               
D20260202260FEB80-620602        100442000218000210000013000029000008000000020260126FEB80E32S00G    5 012S3121260003746FEB80      620602               
D20260202360FBA00-620158        100442000218000210000013000029000008000000020260113FBA00B12S00F    5 012S3121250364754FBA00      620158               
D20260202330BE740G-450390       101684000284000462000013000029000008000000020260121BE740GBAH       6 012B1121250367883BE740G     450390               
D20260202330BE740G-450391       101684000284000462000013000029000008000000020260116BE740GAAH       6 012B1121250362341BE740G     450391               
D20260202330BE740G-450392       101684000284000462000013000029000008000000020260122BE740GAAH       6 012B1121250363911BE740G     450392               
