D20260202220FS84HZ-505159       100907000218000210000013000029000008000000020260123FS84HVZ2TB      2 021L3121250221279FS84HZ     505159               
D20260202220FS84HZ-505167       100907000218000210000013000029000008000000020260123FS84HVZ2TB      2 021L3121250223826FS84HZ     505167               
D20260202220FU84HZ-505038       100907000218000210000013000029000008000000020260121FU84HTZ2B       2 513L3121250191039FU84HZ     505038               
D20260202220FU84HZ-505110       100907000218000210000013000029000008000000020260119FU84HUZ2TB      2 021L3121250279786FU84HZ     505110               
D20260202240FK62F-621731        100650000218000210000013000029000008000000020260121FK62FK4         9 632M3121250309580FK62F      621731               
D20260202260FBAV0-620180        100442000218000210000013000029000008000000020260113FBAV0B23S00G    5 012S3121250334676FBAV0      620180               
D20260202260FBAV0-620468        100442000218000210000013000029000008000000020260130FBAV0B22S00G    5 012S3121260025207FBAV0      620468               
D20260202260FBA20-620468        100442000218000210000013000029000008000000020260122FBA20B22S00F    5 012S3121250333295FBA20      620468               
D20260202260FBA60-620344        100442000218000210000013000029000008000000020260116FBA60B32S00G    5 022S3121250331752FBA60      620344               
D20260202260FBA60-620447        100442000218000210000013000029000008000000020260114FBA60B32S00G    5 022S3121250340372FBA60      620447               
D20260202260FBA60-620522        100442000284000210000013000029000008000000020260128FBA60B32SD0G    5 022S3121250351406FBA60      620522               
D20260202260FEAV0-612322        100442000218000210000013000029000008000000020260107FEAV0B24SGUG    4 641S3121250197024FEAV0      612322               
D20260202260FEAV0-620128        100442000218000210000013000029000008000000020260116FEAV0E34SK0G    5 012S3121250302824FEAV0      620128               
D20260202260FGA20-620031        100442000218000210000013000029000008000000020260113FGA20E21SK0F    5 012S3121250341665FGA20      620031               
D20260202360FBA00-620135        100442000218000210000013000029000008000000020260116FBA00B12S00F    5 012S3121250354580FBA00      620135               
D20260202320MS06GP-15767        105409000218000807000013000029000008000000020260115MS06GPQUCV      8 013B1121250335868MS06GP      15767               
D20260202320MS06GP-15779        105409000218000807000013000029000008000000020260113MS06GPQGUCV     8 013B1121250350155MS06GP      15779               
D20260202330BE740E-450069       101684000284000462000013000029000008000000020260108BE740EAAH       6 012B1121250327964BE740E     450069               
D20260202330BE740G-450343       101684000218000462000013000029000008000000020260107BE740GBAH       6 012B1121250345869BE740G     450343               
D20260202330BE740J-450061       101684000284000462000013000029000008000000020260128BE740JBAJGH     6 012B1121250316159BE740J     450061               
