D20260105220FV80GX-505023       100907000218000210000013000029000008000000020251219FV80GJXM2B      2 555L3121250187108FV80GX     505023               
D20260105220FV80VY-500179       100907000218000210000013000029000008000000020251201FV80VMYD1B      1 022L3121250100297FV80VY     500179               
D20260105220FV80VZ-500122       100907000218000210000013000029000008000000020251208FV80VUZK2C      1 012L3121250111754FV80VZ     500122               
D20260105220FV80VZ-500147       100907000218000210000013000029000008000000020251222FV80VTZP4XTC    1 030L3121250131932FV80VZ     500147               
D20260105220FY80VY-505002       100907000218000210000013000029000008000000020251208FY80VRYK1B      2 012L3121250169971FY80VY     505002               
D20260105240FK62F-621672        100650000218000210000013000029000008000000020251218FK62FK4N        9 021M3121250295353FK62F      621672               
D20260105240FK65F-620837        100650000218000210000013000029000008000000020251210FK65FK5         9 021M3121240325112FK65F      620837               
D20260105240FK65F-621511        100650000218000210000013000029000008000000020251215FK65FK4E        9 012M3121250189654FK65F      621511               
D20260105240FK72F-621558        100650000218000210000013000029000008000000020251215FK72FC4D        9 022M3121250206100FK72F      621558               
D20260105260FDA20-620009        100442000218000210000013000029000008000000020251212FDA20B21S00F    5 012S3121250302576FDA20      620009               
D20260105260FDA60-620016        100442000218000210000013000029000008000000020251223FDA60B21S00G    5 022S3121250305285FDA60      620016               
D20260105360FDA00-620005        100442000218000210000013000029000008000000020251218FDA00B11S00E    5 012S3121250296415FDA00      620005               
D20260105360FDA00-620008        100442000218000210000013000029000008000000020251203FDA00B11S00E    5 632S3121250305269FDA00      620008               
D20260105330BE740G-450293       101684000284000462000013000029000008000000020251216BE740GBAGH      6 012B1121250299342BE740G     450293               
D20260105330BG740G-400248       101684000284000462000013000029000008000000020251202BG740GBAJG      5 012B1121250117518BG740G     400248               
