D20260105220FS84HZ-505026       100907000218000210000013000029000008000000020251201FS84HVZ2B       2 021L3121250148673FS84HZ     505026               
D20260105220FS84HZ-505222       100907000218000210000013000029000008000000020251223FS84HVZ2TC      2 021L3121250234309FS84HZ     505222               
D20260105220FS84HZ-505291       100907000218000210000013000029000008000000020251225FS84HVZ2TB      2 012L3121250250514FS84HZ     505291               
D20260105220FS84VZ-505023       100907000218000210000013000029000008000000020251223FS84VVZ1TB      2 021L3121250152184FS84VZ     505023               
D20260105220FV80GX-505025       100907000218000210000013000029000008000000020251226FV80GJXD2B      2 022L3121250188433FV80GX     505025               
D20260105220FV80HX-500187       100907000218000210000013000029000008000000020251224FV80HJXD2B      1 022L3121250096129FV80HX     500187               
D20260105220FV80HX-505002       100907000218000210000013000029000008000000020251223FV80HJXD2TB     2 022L3121250142558FV80HX     505002               
D20260105240FK72F-621956        100650000218000210000013000029000008000000020251223FK72FC4D        9 022M3121250316537FK72F      621956               
D20260105240FK72F-621967        100650000218000210000013000029000008000000020251205FK72FC4D        9 022M3121250306855FK72F      621967               
D20260105240FK72F-621970        100650000218000210000013000029000008000000020251215FK72FJ4K        9 012M3121250300932FK72F      621970               
D20260105240FK72F-621973        100650000218000210000013000029000008000000020251223FK72FE4         9 151M3121250299023FK72F      621973               
D20260105240FK72F-622019        100650000218000210000013000029000008000000020251205FK72FC4D        9 022M3121250326307FK72F      622019               
D20260105240FK72F-622044        100650000218000210000013000029000008000000020251223FK72FC4D        9 022M3121250328390FK72F      622044               
D20260105260FBAV0-620009        100442000218000210000013000029000008000000020251205FBAV0B22S00G    5 012S3121250310005FBAV0      620009               
D20260105260FBAV0-620193        100442000218000210000013000029000008000000020251225FBAV0B34S00G    5 012S3121250337499FBAV0      620193               
D20260105260FBA20-611795        100442000218000210000013000029000008000000020251209FBA20B22S00F    4 012S3121250040171FBA20      611795               
D20260105260FBA20-612059        100442000218000210000013000029000008000000020251205FBA20B22S00F    4 012S3121250075342FBA20      612059               
D20260105260FBA20-620243        100442000218000210000013000029000008000000020251205FBA20B21S00F    5 012S3121250310702FBA20      620243               
D20260105260FBA20-620244        100442000218000210000013000029000008000000020251205FBA20B21S00F    5 012S3121250310715FBA20      620244               
D20260105260FBA20-620259        100442000218000210000013000029000008000000020251205FBA20B21W00F    5 012S3121250313802FBA20      620259               
D20260105260FBA20-620273        100442000218000210000013000029000008000000020251205FBA20B21W00F    5 012S3121250315316FBA20      620273               
D20260105260FBA20-620290        100442000218000210000013000029000008000000020251224FBA20B21S00F    5 012S3121250317817FBA20      620290               
D20260105260FBA20-620541        100442000218000210000013000029000008000000020251209FBA20B21W00F    5 012S3121250343270FBA20      620541               
D20260105260FBA60-612924        100442000218000210000013000029000008000000020251204FBA60B32S00G    4 022S3121250217175FBA60      612924               
D20260105260FBA60-620250        100442000218000210000013000029000008000000020251205FBA60B32S00G    5 022S3121250320905FBA60      620250               
D20260105260FBA60-620263        100442000218000210000013000029000008000000020251205FBA60B32S00G    5 022S3121250324314FBA60      620263               
D20260105260FBA60-620277        100442000218000210000013000029000008000000020251205FBA60B32S00G    5 022S3121250326567FBA60      620277               
D20260105260FBA60-620299        100442000218000210000013000029000008000000020251205FBA60B32S00G    5 022S3121250328198FBA60      620299               
D20260105260FBA60-620460        100442000218000210000013000029000008000000020251223FBA60B32S00G    5 022S3121250342118FBA60      620460               
D20260105260FEAVK-612526        100442000218000210000013000029000008000000020251205FEAVKB2CS00F    4 021S3121250251230FEAVK      612526               
D20260105260FEAV0-620036        100442000218000210000013000029000008000000020251205FEAV0E24S0MG    5 012S3121250283268FEAV0      620036               
D20260105260FEAV0-620093        100442000218000210000013000029000008000000020251205FEAV0E24S0MG    5 012S3121250294363FEAV0      620093               
D20260105260FEA20-620095        100442000218000210000013000029000008000000020251223FEA20C22S00F    5 012S3121250337750FEA20      620095               
D20260105260FEB50-620210        100442000218000210000013000029000008000000020251205FEB50E21S00G    5 012S3121250331417FEB50      620210               
D20260105260FEB50-620218        100442000218000210000013000029000008000000020251224FEB50E32S00G    5 022S3121250333468FEB50      620218               
D20260105260FEB80-612568        100442000218000210000013000029000008000000020251222FEB80E31S00G    4 012S3121250277689FEB80      612568               
D20260105260FEB80-620340        100442000218000210000013000029000008000000020251225FEB80E41S00G    5 012S3121250343049FEB80      620340               
D20260105260FEB90-620027        100442000218000210000013000029000008000000020251223FEB90E74S00H    5 012S3121250285091FEB90      620027               
D20260105260FEB90-620087        100442000218000210000013000029000008000000020251223FEB90E74S00H    5 012S3121250298004FEB90      620087               
D20260105260FEC90-610054        100442000218000210000013000029000008000000020251216FEC90K74S00H    4 021S3121250278422FEC90      610054               
D20260105360FBA00-610605        100442000218000210000013000029000008000000020251223FBA00B11W00E    4 012S3121250133273FBA00      610605               
D20260105360FBA00-620009        100442000218000210000013000029000008000000020251205FBA00B11S00E    5 012S3121250309085FBA00      620009               
D20260105360FBA00-620082        100442000218000210000013000029000008000000020251223FBA00B11W00E    5 012S3121250325971FBA00      620082               
D20260105360FDA00-620025        100442000218000210000013000029000008000000020251223FDA00B11W00E    5 012S3121250319998FDA00      620025               
